{
  "contractName": "Splitwise",
  "abi": [
    {
      "anonymous": false,
      "inputs": [
        {
          "indexed": false,
          "name": "groupId",
          "type": "uint256"
        },
        {
          "indexed": false,
          "name": "participants",
          "type": "address[]"
        }
      ],
      "name": "GroupProposalSubmitted",
      "type": "event",
      "signature": "0x9580681b71f54112dcf270118315b53416d23fd6a27edb4eded9ff6cfe90725a"
    },
    {
      "anonymous": false,
      "inputs": [
        {
          "indexed": false,
          "name": "groupId",
          "type": "uint256"
        },
        {
          "indexed": false,
          "name": "participant",
          "type": "address"
        }
      ],
      "name": "GroupConfirmationRegistered",
      "type": "event",
      "signature": "0x7743e64c1b93ddb6e58f7edc7d50ea6bf70522dd63c62f03ac77cc9294f83364"
    },
    {
      "anonymous": false,
      "inputs": [
        {
          "indexed": false,
          "name": "groupId",
          "type": "uint256"
        },
        {
          "indexed": false,
          "name": "participants",
          "type": "address[]"
        }
      ],
      "name": "GroupCreated",
      "type": "event",
      "signature": "0x56ee4b03d1f085bcbcafffc01ee542642270d5b8b17177648fd5ce6b0b8de5dc"
    },
    {
      "anonymous": false,
      "inputs": [
        {
          "indexed": false,
          "name": "groupId",
          "type": "uint256"
        }
      ],
      "name": "GroupProposalDeleted",
      "type": "event",
      "signature": "0x997412f082558cf015b5fc48491ec36d6378d03531d3eb884ffafdea154e0cce"
    },
    {
      "constant": false,
      "inputs": [
        {
          "name": "participants",
          "type": "address[]"
        }
      ],
      "name": "registerGroupProposal",
      "outputs": [],
      "payable": false,
      "stateMutability": "nonpayable",
      "type": "function",
      "signature": "0x537a6d36"
    },
    {
      "constant": false,
      "inputs": [
        {
          "name": "groupId",
          "type": "uint256"
        },
        {
          "name": "confirmation",
          "type": "bool"
        }
      ],
      "name": "registerGroupConfirmation",
      "outputs": [],
      "payable": false,
      "stateMutability": "nonpayable",
      "type": "function",
      "signature": "0x0fa723c4"
    }
  ],
  "bytecode": "0x6080604052600160005534801561001557600080fd5b50611043806100256000396000f3fe60806040526004361061004c576000357c0100000000000000000000000000000000000000000000000000000000900463ffffffff1680630fa723c414610051578063537a6d3614610098575b600080fd5b34801561005d57600080fd5b506100966004803603604081101561007457600080fd5b810190808035906020019092919080351515906020019092919050505061011e565b005b3480156100a457600080fd5b5061011c600480360360208110156100bb57600080fd5b81019080803590602001906401000000008111156100d857600080fd5b8201836020820111156100ea57600080fd5b8035906020019184602083028401116401000000008311171561010c57600080fd5b9091929391929390505050610843565b005b6001600083815260200190815260200160002060030160009054906101000a900460ff161515156101b7576040517f08c379a000000000000000000000000000000000000000000000000000000000815260040180806020018281038252601f8152602001807f416c72656164792072656a65637465642067726f75702070726f706f73616c0081525060200191505060405180910390fd5b6001600083815260200190815260200160002060030160019054906101000a900460ff16151515610250576040517f08c379a000000000000000000000000000000000000000000000000000000000815260040180806020018281038252601f8152602001807f416c726561647920617070726f7665642067726f75702070726f706f73616c0081525060200191505060405180910390fd5b60006102f6600160008581526020019081526020016000206000018054806020026020016040519081016040528092919081815260200182805480156102eb57602002820191906000526020600020905b8160009054906101000a900473ffffffffffffffffffffffffffffffffffffffff1673ffffffffffffffffffffffffffffffffffffffff16815260200190600101908083116102a1575b505050505033610c37565b905060016000848152602001908152602001600020600001805490508160ff1610151561038b576040517f08c379a00000000000000000000000000000000000000000000000000000000081526004018080602001828103825260178152602001807f4e6f7420612067726f7570207061727469636970616e7400000000000000000081525060200191505060405180910390fd5b8115156105c8576104396001600085815260200190815260200160002060000180548060200260200160405190810160405280929190818152602001828054801561042b57602002820191906000526020600020905b8160009054906101000a900473ffffffffffffffffffffffffffffffffffffffff1673ffffffffffffffffffffffffffffffffffffffff16815260200190600101908083116103e1575b50505050508260ff16610cbb565b600160008581526020019081526020016000206000019080519060200190610462929190610ef8565b5060006001600085815260200190815260200160002060010160003373ffffffffffffffffffffffffffffffffffffffff1673ffffffffffffffffffffffffffffffffffffffff16815260200190815260200160002060006101000a81548160ff0219169083151502179055507f7743e64c1b93ddb6e58f7edc7d50ea6bf70522dd63c62f03ac77cc9294f833648333604051808381526020018273ffffffffffffffffffffffffffffffffffffffff1673ffffffffffffffffffffffffffffffffffffffff1681526020019250505060405180910390a16002600160008581526020019081526020016000206000018054905010156105c257600180600085815260200190815260200160002060030160006101000a81548160ff0219169083151502179055507f997412f082558cf015b5fc48491ec36d6378d03531d3eb884ffafdea154e0cce836040518082815260200191505060405180910390a15b5061083f565b600180600085815260200190815260200160002060010160003373ffffffffffffffffffffffffffffffffffffffff1673ffffffffffffffffffffffffffffffffffffffff16815260200190815260200160002060006101000a81548160ff0219169083151502179055507f7743e64c1b93ddb6e58f7edc7d50ea6bf70522dd63c62f03ac77cc9294f833648333604051808381526020018273ffffffffffffffffffffffffffffffffffffffff1673ffffffffffffffffffffffffffffffffffffffff1681526020019250505060405180910390a160016000848152602001908152602001600020600001805490506106d360016000868152602001908152602001600020610e21565b60ff16141561083d576001600084815260200190815260200160002060000160026000858152602001908152602001600020600001908054610716929190610f82565b5060016002600085815260200190815260200160002060020160006101000a81548160ff021916908315150217905550600180600085815260200190815260200160002060030160016101000a81548160ff0219169083151502179055507f56ee4b03d1f085bcbcafffc01ee542642270d5b8b17177648fd5ce6b0b8de5dc83600260008681526020019081526020016000206000016040518083815260200180602001828103825283818154815260200191508054801561082d57602002820191906000526020600020905b8160009054906101000a900473ffffffffffffffffffffffffffffffffffffffff1673ffffffffffffffffffffffffffffffffffffffff16815260200190600101908083116107e3575b5050935050505060405180910390a15b505b5050565b6002828290501015151561085657600080fd5b6032828290501115151561086957600080fd5b600080600081548092919060010191905055905060008090505b838390508160ff161015610b0b5760016000838152602001908152602001600020600201600085858460ff1681811015156108ba57fe5b9050602002013573ffffffffffffffffffffffffffffffffffffffff1673ffffffffffffffffffffffffffffffffffffffff1673ffffffffffffffffffffffffffffffffffffffff16815260200190815260200160002060009054906101000a900460ff161515610afe576001600083815260200190815260200160002060000184848360ff16818110151561094c57fe5b9050602002013573ffffffffffffffffffffffffffffffffffffffff1690806001815401808255809150509060018203906000526020600020016000909192909190916101000a81548173ffffffffffffffffffffffffffffffffffffffff021916908373ffffffffffffffffffffffffffffffffffffffff160217905550506001806000848152602001908152602001600020600201600086868560ff1681811015156109f657fe5b9050602002013573ffffffffffffffffffffffffffffffffffffffff1673ffffffffffffffffffffffffffffffffffffffff1673ffffffffffffffffffffffffffffffffffffffff16815260200190815260200160002060006101000a81548160ff021916908315150217905550600060016000848152602001908152602001600020600101600086868560ff168181101515610a8f57fe5b9050602002013573ffffffffffffffffffffffffffffffffffffffff1673ffffffffffffffffffffffffffffffffffffffff1673ffffffffffffffffffffffffffffffffffffffff16815260200190815260200160002060006101000a81548160ff0219169083151502179055505b8080600101915050610883565b5060006001600083815260200190815260200160002060030160006101000a81548160ff02191690831515021790555060006001600083815260200190815260200160002060030160016101000a81548160ff0219169083151502179055507f9580681b71f54112dcf270118315b53416d23fd6a27edb4eded9ff6cfe90725a816001600084815260200190815260200160002060000160405180838152602001806020018281038252838181548152602001915080548015610c2357602002820191906000526020600020905b8160009054906101000a900473ffffffffffffffffffffffffffffffffffffffff1673ffffffffffffffffffffffffffffffffffffffff1681526020019060010190808311610bd9575b5050935050505060405180910390a1505050565b600080600090505b83518160ff161015610caf57838160ff16815181101515610c5c57fe5b9060200190602002015173ffffffffffffffffffffffffffffffffffffffff168373ffffffffffffffffffffffffffffffffffffffff161415610ca25780915050610cb5565b8080600101915050610c3f565b50825190505b92915050565b6060825182101515610ccf57829050610e1b565b60606001845103604051908082528060200260200182016040528015610d045781602001602082028038833980820191505090505b50905060008090505b84518160ff161015610e1157838160ff161015610d8d57848160ff16815181101515610d3557fe5b90602001906020020151828260ff16815181101515610d5057fe5b9060200190602002019073ffffffffffffffffffffffffffffffffffffffff16908173ffffffffffffffffffffffffffffffffffffffff16815250505b838160ff161115610e0457848160ff16815181101515610da957fe5b90602001906020020151826001830360ff16815181101515610dc757fe5b9060200190602002019073ffffffffffffffffffffffffffffffffffffffff16908173ffffffffffffffffffffffffffffffffffffffff16815250505b8080600101915050610d0d565b5060609350809150505b92915050565b6000806000905060008090505b83600001805490508160ff161015610eee576000846000018260ff16815481101515610e5657fe5b9060005260206000200160009054906101000a900473ffffffffffffffffffffffffffffffffffffffff1690508460010160008273ffffffffffffffffffffffffffffffffffffffff1673ffffffffffffffffffffffffffffffffffffffff16815260200190815260200160002060009054906101000a900460ff1615610ee05782806001019350505b508080600101915050610e2e565b5080915050919050565b828054828255906000526020600020908101928215610f71579160200282015b82811115610f705782518260006101000a81548173ffffffffffffffffffffffffffffffffffffffff021916908373ffffffffffffffffffffffffffffffffffffffff16021790555091602001919060010190610f18565b5b509050610f7e9190610fd4565b5090565b828054828255906000526020600020908101928215610fc35760005260206000209182015b82811115610fc2578254825591600101919060010190610fa7565b5b509050610fd09190610fd4565b5090565b61101491905b8082111561101057600081816101000a81549073ffffffffffffffffffffffffffffffffffffffff021916905550600101610fda565b5090565b9056fea165627a7a72305820ba622ce22ee1d3192789d99650a9a52a6a3f492908ff74ae943589071e196ad20029",
  "source": "pragma solidity ^0.5.0;\n\ncontract Splitwise {\n\n  uint256 private idCounter = 1;\n\n  struct Group {\n    address[] participants;\n    mapping(address => mapping(address => uint256)) balances;\n    bool isSettledUp;\n  }\n\n  struct GroupProposal {\n    address[] participants;\n    mapping(address => bool) confirmations;\n    mapping(address => bool) addressLedger;\n    bool isRejected;\n    bool isApproved;\n  }\n\n  mapping(uint256 => GroupProposal) private groupProposals;\n\n  mapping(uint256 => Group) private groups;\n\n  function registerGroupProposal(address[] calldata participants) external {\n    require(participants.length >= 2);\n    require(participants.length <= 50);\n\n    uint256 groupProposalId = idCounter++;\n    for(uint8 i = 0; i < participants.length; i++){\n      if(!groupProposals[groupProposalId].addressLedger[participants[i]]){\n        groupProposals[groupProposalId].participants.push(participants[i]);\n        groupProposals[groupProposalId].addressLedger[participants[i]] = true;\n        groupProposals[groupProposalId].confirmations[participants[i]] = false;\n      }\n    }\n    groupProposals[groupProposalId].isRejected = false;\n    groupProposals[groupProposalId].isApproved = false;\n\n    emit GroupProposalSubmitted(groupProposalId, groupProposals[groupProposalId].participants);\n  }\n\n  function registerGroupConfirmation(uint256 groupId, bool confirmation) external {\n    //Checking that group proposal has not been discarded or transformed into a group already\n    require(!groupProposals[groupId].isRejected, \"Already rejected group proposal\");\n    require(!groupProposals[groupId].isApproved, \"Already approved group proposal\");\n\n    //Checking that sender is an invited group participant\n    uint8 index = getParticipantIndex(groupProposals[groupId].participants, msg.sender);\n    require(index < groupProposals[groupId].participants.length, \"Not a group participant\");\n\n    //Checking whether sender does not intend to be part of the group\n    if(!confirmation) {\n      groupProposals[groupId].participants = removeParticipantByIndex(groupProposals[groupId].participants, index);\n      groupProposals[groupId].confirmations[msg.sender] = false;\n      emit GroupConfirmationRegistered(groupId, msg.sender);\n      if(groupProposals[groupId].participants.length < 2){\n        groupProposals[groupId].isRejected = true;\n        emit GroupProposalDeleted(groupId);\n      }\n      return;\n    }\n    groupProposals[groupId].confirmations[msg.sender] = true;\n    emit GroupConfirmationRegistered(groupId, msg.sender);\n\n    //Checking wheater it is necessary to create a new group\n    if(getGroupProposalConfirmationCount(groupProposals[groupId]) == groupProposals[groupId].participants.length){\n      groups[groupId].participants = groupProposals[groupId].participants;\n      groups[groupId].isSettledUp = true;\n      groupProposals[groupId].isApproved = true;\n      emit GroupCreated(groupId, groups[groupId].participants);\n    }\n  }\n\n  function getGroupProposalConfirmationCount(GroupProposal storage groupProposal) private view returns(uint8){\n    uint8 counter = 0;\n    for(uint8 i = 0; i < groupProposal.participants.length; i++){\n      address participant = groupProposal.participants[i];\n      if(groupProposal.confirmations[participant]) counter++;\n    }\n    return counter;\n  }\n\n  function getParticipantIndex(address[] memory participants, address sender) private pure returns(uint8){\n    for(uint8 i = 0; i < participants.length; i++){\n      if(sender == participants[i]) return i;\n    }\n    return uint8(participants.length);\n  }\n\n  function removeParticipantByIndex(address[] memory participants, uint index) private pure returns(address[] memory) {\n        if (index >= participants.length) return participants;\n\n        address[] memory newParticipants = new address[](participants.length - 1);\n        for (uint8 i = 0; i < participants.length; i++){\n            if(i < index) newParticipants[i] = participants[i];\n            if(i > index) newParticipants[i - 1] = participants[i];\n        }\n        delete participants;\n        return newParticipants;\n  }\n\n  event GroupProposalSubmitted(uint256 groupId, address[] participants);\n\n  event GroupConfirmationRegistered(uint256 groupId, address participant);\n\n  event GroupCreated(uint256 groupId, address[] participants);\n\n  event GroupProposalDeleted(uint256 groupId);\n}\n",
  "sourcePath": "/home/ferretti/blockchain/Splitwise/contracts/Splitwise.sol",
  "compiler": {
    "name": "solc",
    "version": "0.5.0+commit.1d4f565a.Emscripten.clang"
  },
  "schemaVersion": "3.0.6",
  "updatedAt": "2019-04-27T19:46:25.152Z",
  "devdoc": {
    "methods": {}
  },
  "userdoc": {
    "methods": {}
  }
}