{
  "contractName": "SplitwiseGroup",
  "abi": [
    {
      "constant": false,
      "inputs": [],
      "name": "init",
      "outputs": [
        {
          "name": "",
          "type": "address"
        }
      ],
      "payable": false,
      "stateMutability": "nonpayable",
      "type": "function",
      "signature": "0xe1c7392a"
    },
    {
      "constant": false,
      "inputs": [
        {
          "name": "title",
          "type": "string"
        },
        {
          "name": "participants",
          "type": "address[]"
        }
      ],
      "name": "registerGroupProposal",
      "outputs": [
        {
          "name": "",
          "type": "uint256"
        },
        {
          "name": "",
          "type": "address[]"
        }
      ],
      "payable": false,
      "stateMutability": "nonpayable",
      "type": "function",
      "signature": "0x0a48b89b"
    },
    {
      "constant": false,
      "inputs": [
        {
          "name": "groupProposalId",
          "type": "uint256"
        },
        {
          "name": "confirmation",
          "type": "bool"
        }
      ],
      "name": "submitUserParticipation",
      "outputs": [
        {
          "name": "",
          "type": "uint256"
        },
        {
          "name": "",
          "type": "address[]"
        },
        {
          "name": "",
          "type": "address[]"
        },
        {
          "name": "",
          "type": "address[]"
        },
        {
          "name": "",
          "type": "bool"
        },
        {
          "name": "",
          "type": "bool"
        }
      ],
      "payable": false,
      "stateMutability": "nonpayable",
      "type": "function",
      "signature": "0xfeade52b"
    },
    {
      "constant": false,
      "inputs": [
        {
          "name": "groupId",
          "type": "uint256"
        }
      ],
      "name": "deleteGroup",
      "outputs": [
        {
          "name": "",
          "type": "address[]"
        }
      ],
      "payable": false,
      "stateMutability": "nonpayable",
      "type": "function",
      "signature": "0x45d88d2d"
    },
    {
      "constant": true,
      "inputs": [
        {
          "name": "groupId",
          "type": "uint256"
        }
      ],
      "name": "getGroup",
      "outputs": [
        {
          "name": "",
          "type": "string"
        },
        {
          "name": "",
          "type": "address[]"
        }
      ],
      "payable": false,
      "stateMutability": "view",
      "type": "function",
      "signature": "0xceb60654"
    },
    {
      "constant": true,
      "inputs": [
        {
          "name": "groupProposalId",
          "type": "uint256"
        }
      ],
      "name": "getGroupProposal",
      "outputs": [
        {
          "name": "",
          "type": "string"
        },
        {
          "name": "",
          "type": "address[]"
        },
        {
          "name": "",
          "type": "address[]"
        },
        {
          "name": "",
          "type": "address[]"
        }
      ],
      "payable": false,
      "stateMutability": "view",
      "type": "function",
      "signature": "0xc0bce22f"
    }
  ],
  "bytecode": "0x6080604052600160005534801561001557600080fd5b50611f79806100256000396000f3fe608060405260043610610078576000357c0100000000000000000000000000000000000000000000000000000000900463ffffffff1680630a48b89b1461007d57806345d88d2d146101b4578063c0bce22f14610244578063ceb60654146103d0578063e1c7392a146104cc578063feade52b14610523575b600080fd5b34801561008957600080fd5b50610156600480360360408110156100a057600080fd5b81019080803590602001906401000000008111156100bd57600080fd5b8201836020820111156100cf57600080fd5b803590602001918460018302840111640100000000831117156100f157600080fd5b90919293919293908035906020019064010000000081111561011257600080fd5b82018360208201111561012457600080fd5b8035906020019184602083028401116401000000008311171561014657600080fd5b909192939192939050505061066c565b6040518083815260200180602001828103825283818151815260200191508051906020019060200280838360005b8381101561019f578082015181840152602081019050610184565b50505050905001935050505060405180910390f35b3480156101c057600080fd5b506101ed600480360360208110156101d757600080fd5b8101908080359060200190929190505050610b38565b6040518080602001828103825283818151815260200191508051906020019060200280838360005b83811015610230578082015181840152602081019050610215565b505050509050019250505060405180910390f35b34801561025057600080fd5b5061027d6004803603602081101561026757600080fd5b8101908080359060200190929190505050610d25565b6040518080602001806020018060200180602001858103855289818151815260200191508051906020019080838360005b838110156102c95780820151818401526020810190506102ae565b50505050905090810190601f1680156102f65780820380516001836020036101000a031916815260200191505b50858103845288818151815260200191508051906020019060200280838360005b83811015610332578082015181840152602081019050610317565b50505050905001858103835287818151815260200191508051906020019060200280838360005b83811015610374578082015181840152602081019050610359565b50505050905001858103825286818151815260200191508051906020019060200280838360005b838110156103b657808201518184015260208101905061039b565b505050509050019850505050505050505060405180910390f35b3480156103dc57600080fd5b50610409600480360360208110156103f357600080fd5b8101908080359060200190929190505050611006565b604051808060200180602001838103835285818151815260200191508051906020019080838360005b8381101561044d578082015181840152602081019050610432565b50505050905090810190601f16801561047a5780820380516001836020036101000a031916815260200191505b50838103825284818151815260200191508051906020019060200280838360005b838110156104b657808201518184015260208101905061049b565b5050505090500194505050505060405180910390f35b3480156104d857600080fd5b506104e1611259565b604051808273ffffffffffffffffffffffffffffffffffffffff1673ffffffffffffffffffffffffffffffffffffffff16815260200191505060405180910390f35b34801561052f57600080fd5b506105686004803603604081101561054657600080fd5b8101908080359060200190929190803515159060200190929190505050611389565b604051808781526020018060200180602001806020018615151515815260200185151515158152602001848103845289818151815260200191508051906020019060200280838360005b838110156105cd5780820151818401526020810190506105b2565b50505050905001848103835288818151815260200191508051906020019060200280838360005b8381101561060f5780820151818401526020810190506105f4565b50505050905001848103825287818151815260200191508051906020019060200280838360005b83811015610651578082015181840152602081019050610636565b50505050905001995050505050505050505060405180910390f35b60006060600160009054906101000a900473ffffffffffffffffffffffffffffffffffffffff1673ffffffffffffffffffffffffffffffffffffffff163373ffffffffffffffffffffffffffffffffffffffff1614151561075b576040517f08c379a000000000000000000000000000000000000000000000000000000000815260040180806020018281038252603b8152602001807f4f6e6c7920746865206465706c6f796572206f662074686520636f6e7472616381526020017f742063616e20696e766f6b65206974732066756e6374696f6e7321000000000081525060400191505060405180910390fd5b6002848490501015151561076e57600080fd5b6032848490501115151561078157600080fd5b600080600081548092919060010191905055905060008090505b858590508160ff161015610963576004600087878460ff1681811015156107be57fe5b9050602002013573ffffffffffffffffffffffffffffffffffffffff1673ffffffffffffffffffffffffffffffffffffffff1673ffffffffffffffffffffffffffffffffffffffff16815260200190815260200160002060009054906101000a900460ff161515610956576002600083815260200190815260200160002060010186868360ff16818110151561085057fe5b9050602002013573ffffffffffffffffffffffffffffffffffffffff1690806001815401808255809150509060018203906000526020600020016000909192909190916101000a81548173ffffffffffffffffffffffffffffffffffffffff021916908373ffffffffffffffffffffffffffffffffffffffff1602179055505060016004600088888560ff1681811015156108e757fe5b9050602002013573ffffffffffffffffffffffffffffffffffffffff1673ffffffffffffffffffffffffffffffffffffffff1673ffffffffffffffffffffffffffffffffffffffff16815260200190815260200160002060006101000a81548160ff0219169083151502179055505b808060010191505061079b565b508686600260008481526020019081526020016000206000019190610989929190611d20565b5060006002600083815260200190815260200160002060050160006101000a81548160ff02191690831515021790555060006002600083815260200190815260200160002060050160016101000a81548160ff021916908315150217905550610a8b60026000838152602001908152602001600020600101805480602002602001604051908101604052809291908181526020018280548015610a8157602002820191906000526020600020905b8160009054906101000a900473ffffffffffffffffffffffffffffffffffffffff1673ffffffffffffffffffffffffffffffffffffffff1681526020019060010190808311610a37575b50505050506116a6565b806002600083815260200190815260200160002060010180805480602002602001604051908101604052809291908181526020018280548015610b2357602002820191906000526020600020905b8160009054906101000a900473ffffffffffffffffffffffffffffffffffffffff1673ffffffffffffffffffffffffffffffffffffffff1681526020019060010190808311610ad9575b50505050509050925092505094509492505050565b6060600160009054906101000a900473ffffffffffffffffffffffffffffffffffffffff1673ffffffffffffffffffffffffffffffffffffffff163373ffffffffffffffffffffffffffffffffffffffff16141515610c25576040517f08c379a000000000000000000000000000000000000000000000000000000000815260040180806020018281038252603b8152602001807f4f6e6c7920746865206465706c6f796572206f662074686520636f6e7472616381526020017f742063616e20696e766f6b65206974732066756e6374696f6e7321000000000081525060400191505060405180910390fd5b60016003600084815260200190815260200160002060020160006101000a81548160ff02191690831515021790555060006003600084815260200190815260200160002060020160016101000a81548160ff02191690831515021790555060036000838152602001908152602001600020600101805480602002602001604051908101604052809291908181526020018280548015610d1957602002820191906000526020600020905b8160009054906101000a900473ffffffffffffffffffffffffffffffffffffffff1673ffffffffffffffffffffffffffffffffffffffff1681526020019060010190808311610ccf575b50505050509050919050565b606080606080610d33611da0565b6002600087815260200190815260200160002060c06040519081016040529081600082018054600181600116156101000203166002900480601f016020809104026020016040519081016040528092919081815260200182805460018160011615610100020316600290048015610deb5780601f10610dc057610100808354040283529160200191610deb565b820191906000526020600020905b815481529060010190602001808311610dce57829003601f168201915b5050505050815260200160018201805480602002602001604051908101604052809291908181526020018280548015610e7957602002820191906000526020600020905b8160009054906101000a900473ffffffffffffffffffffffffffffffffffffffff1673ffffffffffffffffffffffffffffffffffffffff1681526020019060010190808311610e2f575b5050505050815260200160028201805480602002602001604051908101604052809291908181526020018280548015610f0757602002820191906000526020600020905b8160009054906101000a900473ffffffffffffffffffffffffffffffffffffffff1673ffffffffffffffffffffffffffffffffffffffff1681526020019060010190808311610ebd575b5050505050815260200160038201805480602002602001604051908101604052809291908181526020018280548015610f9557602002820191906000526020600020905b8160009054906101000a900473ffffffffffffffffffffffffffffffffffffffff1673ffffffffffffffffffffffffffffffffffffffff1681526020019060010190808311610f4b575b505050505081526020016005820160009054906101000a900460ff161515151581526020016005820160019054906101000a900460ff161515151581525050905080600001518160200151826040015183606001518393508292508191508090509450945094509450509193509193565b60608060006003600085815260200190815260200160002060020160009054906101000a900460ff16905060006003600086815260200190815260200160002060020160019054906101000a900460ff169050808015611064575081155b15156110fe576040517f08c379a00000000000000000000000000000000000000000000000000000000081526004018080602001828103825260298152602001807f5468652067726f757020697320656974686572206e6f7420616374697665206f81526020017f722064656c65746564000000000000000000000000000000000000000000000081525060400191505060405180910390fd5b6003600086815260200190815260200160002060000160036000878152602001908152602001600020600101818054600181600116156101000203166002900480601f0160208091040260200160405190810160405280929190818152602001828054600181600116156101000203166002900480156111bf5780601f10611194576101008083540402835291602001916111bf565b820191906000526020600020905b8154815290600101906020018083116111a257829003601f168201915b505050505091508080548060200260200160405190810160405280929190818152602001828054801561124757602002820191906000526020600020905b8160009054906101000a900473ffffffffffffffffffffffffffffffffffffffff1673ffffffffffffffffffffffffffffffffffffffff16815260200190600101908083116111fd575b50505050509050935093505050915091565b60008073ffffffffffffffffffffffffffffffffffffffff16600160009054906101000a900473ffffffffffffffffffffffffffffffffffffffff1673ffffffffffffffffffffffffffffffffffffffff16141515611320576040517f08c379a000000000000000000000000000000000000000000000000000000000815260040180806020018281038252600b8152602001807f4e6f7420616c6c6f77656400000000000000000000000000000000000000000081525060200191505060405180910390fd5b33600160006101000a81548173ffffffffffffffffffffffffffffffffffffffff021916908373ffffffffffffffffffffffffffffffffffffffff160217905550600160009054906101000a900473ffffffffffffffffffffffffffffffffffffffff16905090565b60006060806060600080600160009054906101000a900473ffffffffffffffffffffffffffffffffffffffff1673ffffffffffffffffffffffffffffffffffffffff163373ffffffffffffffffffffffffffffffffffffffff1614151561147e576040517f08c379a000000000000000000000000000000000000000000000000000000000815260040180806020018281038252603b8152602001807f4f6e6c7920746865206465706c6f796572206f662074686520636f6e7472616381526020017f742063616e20696e766f6b65206974732066756e6374696f6e7321000000000081525060400191505060405180910390fd5b6002600089815260200190815260200160002060050160009054906101000a900460ff16151515611517576040517f08c379a000000000000000000000000000000000000000000000000000000000815260040180806020018281038252601f8152602001807f416c72656164792072656a65637465642067726f75702070726f706f73616c0081525060200191505060405180910390fd5b6002600089815260200190815260200160002060050160019054906101000a900460ff161515156115b0576040517f08c379a000000000000000000000000000000000000000000000000000000000815260040180806020018281038252601f8152602001807f416c726561647920617070726f7665642067726f75702070726f706f73616c0081525060200191505060405180910390fd5b6002600089815260200190815260200160002060040160003273ffffffffffffffffffffffffffffffffffffffff1673ffffffffffffffffffffffffffffffffffffffff16815260200190815260200160002060009054906101000a900460ff16151515611686576040517f08c379a000000000000000000000000000000000000000000000000000000000815260040180806020018281038252601c8152602001807f446f75626c6520766f74696e67206973206e6f7420616c6c6f7765640000000081525060200191505060405180910390fd5b6116908888611732565b9550955095509550955095509295509295509295565b60008090505b81518160ff16101561172e5760046000838360ff168151811015156116cd57fe5b9060200190602002015173ffffffffffffffffffffffffffffffffffffffff1673ffffffffffffffffffffffffffffffffffffffff16815260200190815260200160002060006101000a81549060ff021916905580806001019150506116ac565b5050565b6000606080606060008086156117bd57600260008981526020019081526020016000206002013290806001815401808255809150509060018203906000526020600020016000909192909190916101000a81548173ffffffffffffffffffffffffffffffffffffffff021916908373ffffffffffffffffffffffffffffffffffffffff160217905550505b86151561183f57600260008981526020019081526020016000206003013290806001815401808255809150509060018203906000526020600020016000909192909190916101000a81548173ffffffffffffffffffffffffffffffffffffffff021916908373ffffffffffffffffffffffffffffffffffffffff160217905550505b6001600260008a815260200190815260200160002060040160003273ffffffffffffffffffffffffffffffffffffffff1673ffffffffffffffffffffffffffffffffffffffff16815260200190815260200160002060006101000a81548160ff021916908315150217905550600080905060008090506118bd611da0565b600260008c815260200190815260200160002060c06040519081016040529081600082018054600181600116156101000203166002900480601f0160208091040260200160405190810160405280929190818152602001828054600181600116156101000203166002900480156119755780601f1061194a57610100808354040283529160200191611975565b820191906000526020600020905b81548152906001019060200180831161195857829003601f168201915b5050505050815260200160018201805480602002602001604051908101604052809291908181526020018280548015611a0357602002820191906000526020600020905b8160009054906101000a900473ffffffffffffffffffffffffffffffffffffffff1673ffffffffffffffffffffffffffffffffffffffff16815260200190600101908083116119b9575b5050505050815260200160028201805480602002602001604051908101604052809291908181526020018280548015611a9157602002820191906000526020600020905b8160009054906101000a900473ffffffffffffffffffffffffffffffffffffffff1673ffffffffffffffffffffffffffffffffffffffff1681526020019060010190808311611a47575b5050505050815260200160038201805480602002602001604051908101604052809291908181526020018280548015611b1f57602002820191906000526020600020905b8160009054906101000a900473ffffffffffffffffffffffffffffffffffffffff1673ffffffffffffffffffffffffffffffffffffffff1681526020019060010190808311611ad5575b505050505081526020016005820160009054906101000a900460ff161515151581526020016005820160019054906101000a900460ff1615151515815250509050600181602001515103816060015151101515611b8d57611b7f8b611bf8565b506000925060019150611bc4565b806020015151816060015151826040015151011415611bc357611bb98b82604001518360000151611c31565b5060019250600091505b5b8a81602001518260400151836060015186868494508393508292509850985098509850985098505050509295509295509295565b600060016002600084815260200190815260200160002060050160006101000a81548160ff021916908315150217905550819050919050565b600082600360008681526020019081526020016000206001019080519060200190611c5d929190611ddb565b5081600360008681526020019081526020016000206000019080519060200190611c88929190611e65565b5060006003600086815260200190815260200160002060020160006101000a81548160ff02191690831515021790555060016003600086815260200190815260200160002060020160016101000a81548160ff02191690831515021790555060016002600086815260200190815260200160002060050160016101000a81548160ff0219169083151502179055508390509392505050565b828054600181600116156101000203166002900490600052602060002090601f016020900481019282601f10611d6157803560ff1916838001178555611d8f565b82800160010185558215611d8f579182015b82811115611d8e578235825591602001919060010190611d73565b5b509050611d9c9190611ee5565b5090565b60c060405190810160405280606081526020016060815260200160608152602001606081526020016000151581526020016000151581525090565b828054828255906000526020600020908101928215611e54579160200282015b82811115611e535782518260006101000a81548173ffffffffffffffffffffffffffffffffffffffff021916908373ffffffffffffffffffffffffffffffffffffffff16021790555091602001919060010190611dfb565b5b509050611e619190611f0a565b5090565b828054600181600116156101000203166002900490600052602060002090601f016020900481019282601f10611ea657805160ff1916838001178555611ed4565b82800160010185558215611ed4579182015b82811115611ed3578251825591602001919060010190611eb8565b5b509050611ee19190611ee5565b5090565b611f0791905b80821115611f03576000816000905550600101611eeb565b5090565b90565b611f4a91905b80821115611f4657600081816101000a81549073ffffffffffffffffffffffffffffffffffffffff021916905550600101611f10565b5090565b9056fea165627a7a7230582086ccd5fa59168f4d20d64e4ec40178a37aba2b887697a18c7695d30a524a4ea30029",
  "source": "pragma solidity ^0.5.0;\n\ncontract SplitwiseGroup {\n\n  uint256 private idCounter = 1;\n\n  struct Group {\n    string title;\n    address[] participants;\n    bool isDeleted;\n    bool isActive;\n  }\n\n  struct GroupProposal {\n    string title;\n    address[] proposedParticipants;\n    address[] confirmations;\n    address[] cancellations;\n    mapping(address => bool) voteLedger;\n    bool isRejected;\n    bool isApproved;\n  }\n\n  address deployer;\n\n  mapping(uint256 => GroupProposal) private groupProposals;\n\n  mapping(uint256 => Group) private groups;\n\n  mapping(address => bool) addressLedger;\n\n  modifier deployer_only {\n    require(msg.sender == deployer, \"Only the deployer of the contract can invoke its functions!\");\n    _;\n  }\n\n  function init() external returns(address) {\n    require(deployer == address(0), \"Not allowed\");\n    deployer = msg.sender;\n    return deployer;\n  }\n\n  function registerGroupProposal(string calldata title, address[] calldata participants) deployer_only external\n    returns(uint256, address[] memory){\n    require(participants.length >= 2);\n    require(participants.length <= 50);\n\n    uint256 groupId = idCounter++;\n    for(uint8 i = 0; i < participants.length; i++){\n      if(!addressLedger[participants[i]]){\n        groupProposals[groupId].proposedParticipants.push(participants[i]);\n        addressLedger[participants[i]] = true;\n      }\n    }\n    groupProposals[groupId].title = title;\n    groupProposals[groupId].isRejected = false;\n    groupProposals[groupId].isApproved = false;\n\n    cleanUpAddressLedger(groupProposals[groupId].proposedParticipants);\n    return(groupId, groupProposals[groupId].proposedParticipants);\n  }\n\n  function submitUserParticipation(uint256 groupProposalId, bool confirmation) deployer_only external\n    returns(uint256, address[] memory, address[] memory, address[] memory, bool, bool){\n    //Checking that group proposal has not been discarded or transformed into a group already\n    require(!groupProposals[groupProposalId].isRejected, \"Already rejected group proposal\");\n    require(!groupProposals[groupProposalId].isApproved, \"Already approved group proposal\");\n    require(!groupProposals[groupProposalId].voteLedger[tx.origin], \"Double voting is not allowed\");\n\n    //Registering confirmation or cancellation\n    return registerUserParticipation(groupProposalId, confirmation);\n  }\n\n  function deleteGroup(uint256 groupId) deployer_only external returns(address[] memory){\n    groups[groupId].isDeleted = true;\n    groups[groupId].isActive = false;\n\n    return groups[groupId].participants;\n  }\n\n  /*************** GETTER FUNCTIONS ****************/\n\n  function getGroup(uint256 groupId) external view returns(string memory, address[] memory) {\n    bool isDeleted = groups[groupId].isDeleted;\n    bool isActive = groups[groupId].isActive;\n    require(isActive && !isDeleted, \"The group is either not active or deleted\");\n    return (groups[groupId].title, groups[groupId].participants);\n  }\n\n  function getGroupProposal(uint256 groupProposalId) external view\n    returns (string memory, address[] memory, address[] memory, address[] memory) {\n      GroupProposal memory gp = groupProposals[groupProposalId];\n      return (gp.title, gp.proposedParticipants, gp.confirmations, gp.cancellations);\n  }\n\n  /*************** PRIVATE FUNCTIONS ****************/\n\n  function cleanUpAddressLedger(address[] memory proposedParticipants) private {\n    for(uint8 i = 0; i < proposedParticipants.length; i++){\n      delete addressLedger[proposedParticipants[i]];\n    }\n  }\n\n  function registerUserParticipation(uint256 id, bool confirmation) private\n    returns(uint256, address[] memory, address[] memory, address[] memory, bool, bool){\n    if(confirmation) groupProposals[id].confirmations.push(tx.origin);\n    if(!confirmation) groupProposals[id].cancellations.push(tx.origin);\n    groupProposals[id].voteLedger[tx.origin] = true;\n\n    //Checking wheater it is necessary to create a new group\n    bool isGroupCreated = false;\n    bool isGroupProposalCancelled = false;\n    GroupProposal memory gp = groupProposals[id];\n    if(gp.cancellations.length >= gp.proposedParticipants.length - 1){\n      deleteGroupProposal(id);\n      isGroupCreated =  false;\n      isGroupProposalCancelled = true;\n    }else if(gp.confirmations.length + gp.cancellations.length == gp.proposedParticipants.length){\n      registerNewGroup(id, gp.confirmations, gp.title);\n      isGroupCreated =  true;\n      isGroupProposalCancelled = false;\n    }\n    return (id, gp.proposedParticipants, gp.confirmations, gp.cancellations, isGroupCreated, isGroupProposalCancelled);\n  }\n\n  function registerNewGroup(uint256 groupId, address[] memory participants, string memory title) private returns(uint256){\n    groups[groupId].participants = participants;\n    groups[groupId].title = title;\n    groups[groupId].isDeleted = false;\n    groups[groupId].isActive = true;\n    groupProposals[groupId].isApproved = true;\n    return groupId;\n  }\n\n  function deleteGroupProposal(uint256 groupProposalId) private returns(uint256){\n    groupProposals[groupProposalId].isRejected = true;\n    return groupProposalId;\n  }\n}\n",
  "sourcePath": "/home/ferretti/blockchain/Splitwise/contracts/SplitwiseGroup.sol",
  "compiler": {
    "name": "solc",
    "version": "0.5.0+commit.1d4f565a.Emscripten.clang"
  },
  "schemaVersion": "3.0.6",
  "updatedAt": "2019-05-15T20:03:59.758Z",
  "devdoc": {
    "methods": {}
  },
  "userdoc": {
    "methods": {
      "getGroup(uint256)": {
        "notice": "************* GETTER FUNCTIONS ***************"
      }
    }
  }
}