{
  "contractName": "Splitwise",
  "abi": [
    {
      "inputs": [
        {
          "name": "splitwiseGroupAddress",
          "type": "address"
        }
      ],
      "payable": false,
      "stateMutability": "nonpayable",
      "type": "constructor"
    },
    {
      "anonymous": false,
      "inputs": [
        {
          "indexed": false,
          "name": "groupId",
          "type": "uint256"
        },
        {
          "indexed": false,
          "name": "participants",
          "type": "address[]"
        }
      ],
      "name": "GroupProposalSubmitted",
      "type": "event"
    },
    {
      "anonymous": false,
      "inputs": [
        {
          "indexed": false,
          "name": "groupId",
          "type": "uint256"
        },
        {
          "indexed": false,
          "name": "participant",
          "type": "address[]"
        }
      ],
      "name": "UserParticipantionRegistered",
      "type": "event"
    },
    {
      "anonymous": false,
      "inputs": [
        {
          "indexed": false,
          "name": "groupId",
          "type": "uint256"
        },
        {
          "indexed": false,
          "name": "participants",
          "type": "address[]"
        }
      ],
      "name": "GroupProposalDeleted",
      "type": "event"
    },
    {
      "anonymous": false,
      "inputs": [
        {
          "indexed": false,
          "name": "groupId",
          "type": "uint256"
        },
        {
          "indexed": false,
          "name": "participants",
          "type": "address[]"
        }
      ],
      "name": "GroupCreated",
      "type": "event"
    },
    {
      "anonymous": false,
      "inputs": [
        {
          "indexed": false,
          "name": "groupId",
          "type": "uint256"
        },
        {
          "indexed": false,
          "name": "participants",
          "type": "address[]"
        }
      ],
      "name": "GroupDeleted",
      "type": "event"
    },
    {
      "constant": false,
      "inputs": [
        {
          "name": "title",
          "type": "string"
        },
        {
          "name": "desiredParticipants",
          "type": "address[]"
        }
      ],
      "name": "registerGroupProposal",
      "outputs": [],
      "payable": false,
      "stateMutability": "nonpayable",
      "type": "function"
    },
    {
      "constant": false,
      "inputs": [
        {
          "name": "groupProposalId",
          "type": "uint256"
        },
        {
          "name": "confirmation",
          "type": "bool"
        }
      ],
      "name": "submitUserParticipation",
      "outputs": [],
      "payable": false,
      "stateMutability": "nonpayable",
      "type": "function"
    },
    {
      "constant": false,
      "inputs": [
        {
          "name": "groupId",
          "type": "uint256"
        }
      ],
      "name": "deleteGroup",
      "outputs": [],
      "payable": false,
      "stateMutability": "nonpayable",
      "type": "function"
    }
  ],
  "bytecode": "0x608060405234801561001057600080fd5b50604051602080610e9e8339810180604052602081101561003057600080fd5b8101908080519060200190929190505050806000806101000a81548173ffffffffffffffffffffffffffffffffffffffff021916908373ffffffffffffffffffffffffffffffffffffffff16021790555050610e0d806100916000396000f3fe608060405260043610610057576000357c0100000000000000000000000000000000000000000000000000000000900463ffffffff1680630a48b89b1461005c57806345d88d2d14610137578063feade52b14610172575b600080fd5b34801561006857600080fd5b506101356004803603604081101561007f57600080fd5b810190808035906020019064010000000081111561009c57600080fd5b8201836020820111156100ae57600080fd5b803590602001918460018302840111640100000000831117156100d057600080fd5b9091929391929390803590602001906401000000008111156100f157600080fd5b82018360208201111561010357600080fd5b8035906020019184602083028401116401000000008311171561012557600080fd5b90919293919293905050506101b9565b005b34801561014357600080fd5b506101706004803603602081101561015a57600080fd5b810190808035906020019092919050505061047e565b005b34801561017e57600080fd5b506101b76004803603604081101561019557600080fd5b8101908080359060200190929190803515159060200190929190505050610627565b005b600060606000809054906101000a900473ffffffffffffffffffffffffffffffffffffffff1673ffffffffffffffffffffffffffffffffffffffff16630a48b89b878787876040518563ffffffff167c01000000000000000000000000000000000000000000000000000000000281526004018080602001806020018381038352878782818152602001925080828437600081840152601f19601f8201169050808301925050508381038252858582818152602001925060200280828437600081840152601f19601f8201169050808301925050509650505050505050600060405180830381600087803b1580156102b057600080fd5b505af11580156102c4573d6000803e3d6000fd5b505050506040513d6000823e3d601f19601f8201168201806040525060408110156102ee57600080fd5b8101908080519060200190929190805164010000000081111561031057600080fd5b8281019050602081018481111561032657600080fd5b815185602082028301116401000000008211171561034357600080fd5b5050929190505050809250819350505060008090505b81518160ff1610156103f55760026000838360ff1681518110151561037a57fe5b9060200190602002015173ffffffffffffffffffffffffffffffffffffffff1673ffffffffffffffffffffffffffffffffffffffff1681526020019081526020016000208390806001815401808255809150509060018203906000526020600020016000909192909190915055508080600101915050610359565b507f9580681b71f54112dcf270118315b53416d23fd6a27edb4eded9ff6cfe90725a82826040518083815260200180602001828103825283818151815260200191508051906020019060200280838360005b83811015610462578082015181840152602081019050610447565b50505050905001935050505060405180910390a1505050505050565b60606000809054906101000a900473ffffffffffffffffffffffffffffffffffffffff1673ffffffffffffffffffffffffffffffffffffffff166345d88d2d836040518263ffffffff167c010000000000000000000000000000000000000000000000000000000002815260040180828152602001915050600060405180830381600087803b15801561051057600080fd5b505af1158015610524573d6000803e3d6000fd5b505050506040513d6000823e3d601f19601f82011682018060405250602081101561054e57600080fd5b81019080805164010000000081111561056657600080fd5b8281019050602081018481111561057c57600080fd5b815185602082028301116401000000008211171561059957600080fd5b505092919050505090507facad04a7e1c86d10dc1141edf820922c1a80d97edf45234bbf58a33705967eea82826040518083815260200180602001828103825283818151815260200191508051906020019060200280838360005b8381101561060f5780820151818401526020810190506105f4565b50505050905001935050505060405180910390a15050565b600060606000806000809054906101000a900473ffffffffffffffffffffffffffffffffffffffff1673ffffffffffffffffffffffffffffffffffffffff1663feade52b87876040518363ffffffff167c0100000000000000000000000000000000000000000000000000000000028152600401808381526020018215151515815260200192505050600060405180830381600087803b1580156106ca57600080fd5b505af11580156106de573d6000803e3d6000fd5b505050506040513d6000823e3d601f19601f82011682018060405250608081101561070857600080fd5b8101908080519060200190929190805164010000000081111561072a57600080fd5b8281019050602081018481111561074057600080fd5b815185602082028301116401000000008211171561075d57600080fd5b505092919060200180519060200190929190805190602001909291905050508094508195508296508397505050505081158015610798575080155b15610822577fe53414af142c3981cd2d57e174bc25abcf9061830ed65b0d5a57766b4669e9ba84846040518083815260200180602001828103825283818151815260200191508051906020019060200280838360005b838110156108095780820151818401526020810190506107ee565b50505050905001935050505060405180910390a1610967565b8115801561082d5750805b156108c15761083c848461096f565b7f0906836b15e9c21efdccdca080b3275c76f64a8fcd0521bff6bd8b216760ce6984846040518083815260200180602001828103825283818151815260200191508051906020019060200280838360005b838110156108a857808201518184015260208101905061088d565b50505050905001935050505060405180910390a1610966565b8180156108cc575080155b15610960576108db8484610b6a565b7f56ee4b03d1f085bcbcafffc01ee542642270d5b8b17177648fd5ce6b0b8de5dc84846040518083815260200180602001828103825283818151815260200191508051906020019060200280838360005b8381101561094757808201518184015260208101905061092c565b50505050905001935050505060405180910390a1610965565b600080fd5b5b5b505050505050565b600080600090505b82518160ff161015610b6457610a348460016000868560ff1681518110151561099c57fe5b9060200190602002015173ffffffffffffffffffffffffffffffffffffffff1673ffffffffffffffffffffffffffffffffffffffff168152602001908152602001600020805480602002602001604051908101604052809291908181526020018280548015610a2a57602002820191906000526020600020905b815481526020019060010190808311610a16575b5050505050610c11565b9150610aea8260ff1660016000868560ff16815181101515610a5257fe5b9060200190602002015173ffffffffffffffffffffffffffffffffffffffff1673ffffffffffffffffffffffffffffffffffffffff168152602001908152602001600020805480602002602001604051908101604052809291908181526020018280548015610ae057602002820191906000526020600020905b815481526020019060010190808311610acc575b5050505050610c69565b60016000858460ff16815181101515610aff57fe5b9060200190602002015173ffffffffffffffffffffffffffffffffffffffff1673ffffffffffffffffffffffffffffffffffffffff1681526020019081526020016000209080519060200190610b56929190610d6f565b508080600101915050610977565b50505050565b60008090505b81518160ff161015610c0c5760016000838360ff16815181101515610b9157fe5b9060200190602002015173ffffffffffffffffffffffffffffffffffffffff1673ffffffffffffffffffffffffffffffffffffffff1681526020019081526020016000208390806001815401808255809150509060018203906000526020600020016000909192909190915055508080600101915050610b70565b505050565b600080600090505b82518160ff161015610c5d57828160ff16815181101515610c3657fe5b90602001906020020151841415610c505780915050610c63565b8080600101915050610c19565b50815190505b92915050565b6060815183101515610c7d57819050610d69565b60606001835103604051908082528060200260200182016040528015610cb25781602001602082028038833980820191505090505b50905060008090505b83518160ff161015610d6357848160ff161015610d0d57838160ff16815181101515610ce357fe5b90602001906020020151828260ff16815181101515610cfe57fe5b90602001906020020181815250505b848160ff161115610d5657838160ff16815181101515610d2957fe5b90602001906020020151826001830360ff16815181101515610d4757fe5b90602001906020020181815250505b8080600101915050610cbb565b50809150505b92915050565b828054828255906000526020600020908101928215610dab579160200282015b82811115610daa578251825591602001919060010190610d8f565b5b509050610db89190610dbc565b5090565b610dde91905b80821115610dda576000816000905550600101610dc2565b5090565b9056fea165627a7a723058207f2429a937a03dc753f617cde67fb5dd6fbd57a0edb9dee2acb8f63b77d51edd0029",
  "source": "pragma solidity ^0.5.0;\n\nimport \"./SplitwiseGroup.sol\";\n\ncontract Splitwise {\n\n  SplitwiseGroup swGroup;\n\n  mapping(address => uint256[]) userGroups;\n  mapping(address => uint256[]) userGroupProposals;\n\n  constructor(address splitwiseGroupAddress) public {\n    swGroup = SplitwiseGroup(splitwiseGroupAddress);\n  }\n\n  function registerGroupProposal(string calldata title, address[] calldata desiredParticipants) external {\n    uint256 groupProposalId;\n    address[] memory participants;\n\n    (groupProposalId, participants) = swGroup.registerGroupProposal(title, desiredParticipants);\n    for(uint8 i = 0; i < participants.length; i++) userGroupProposals[participants[i]].push(groupProposalId);\n\n    emit GroupProposalSubmitted(groupProposalId, participants);\n  }\n\n  function submitUserParticipation(uint256 groupProposalId, bool confirmation) external {\n    uint256 id;\n    address[] memory participants;\n    bool isGroupCreated;\n    bool isGroupProposalCancelled;\n\n    (id, participants, isGroupCreated, isGroupProposalCancelled) = swGroup.submitUserParticipation(groupProposalId, confirmation);\n\n    if(!isGroupCreated && !isGroupProposalCancelled) {\n      emit UserParticipantionRegistered(id, participants);\n    }else if(!isGroupCreated && isGroupProposalCancelled) {\n      deleteGroupProposal(id, participants);\n      emit GroupProposalDeleted(id, participants);\n    }else if(isGroupCreated && !isGroupProposalCancelled){\n      registerNewGroup(id, participants);\n      emit GroupCreated(id, participants);\n    }else revert();\n  }\n\n  function deleteGroup(uint256 groupId) external {\n    address[] memory participants = swGroup.deleteGroup(groupId);\n    emit GroupDeleted(groupId, participants);\n  }\n\n  /*************** PRIVATE FUNCTIONS ****************/\n\n  function deleteGroupProposal(uint256 groupProposalId, address[] memory users) private {\n    uint8 index;\n\n    for(uint8 i = 0; i < users.length; i++){\n      index = getGroupIndex(groupProposalId, userGroups[users[i]]);\n      userGroups[users[i]] = removeGroupByIndex(index, userGroups[users[i]]);\n    }\n  }\n\n  function registerNewGroup(uint256 groupId, address[] memory users) private {\n    for(uint8 i = 0; i < users.length; i++){\n      userGroups[users[i]].push(groupId);\n    }\n  }\n\n  /*************** EVENTS ****************/\n\n  event GroupProposalSubmitted(uint256 groupId, address[] participants);\n\n  event UserParticipantionRegistered(uint256 groupId, address[] participant);\n\n  event GroupProposalDeleted(uint256 groupId, address[] participants);\n\n  event GroupCreated(uint256 groupId, address[] participants);\n\n  event GroupDeleted(uint256 groupId, address[] participants);\n\n\n  /*************** LIBRARY FUNCTIONS ****************/\n\n  function getGroupIndex(uint256 groupId, uint256[] memory groups) private pure returns(uint8){\n    for(uint8 i = 0; i < groups.length; i++){\n      if(groupId == groups[i]) return i;\n    }\n    return uint8(groups.length);\n  }\n\n  function removeGroupByIndex(uint index, uint256[] memory groups) private pure returns(uint256[] memory) {\n        if (index >= groups.length) return groups;\n\n        uint256[] memory newGroups = new uint256[](groups.length - 1);\n        for (uint8 i = 0; i < groups.length; i++){\n            if(i < index) newGroups[i] = groups[i];\n            if(i > index) newGroups[i - 1] = groups[i];\n        }\n        return newGroups;\n  }\n}\n",
  "sourcePath": "/home/ferretti/blockchain/Splitwise/contracts/Splitwise.sol",
  "compiler": {
    "name": "solc",
    "version": "0.5.0+commit.1d4f565a.Emscripten.clang"
  },
  "schemaVersion": "3.0.6",
  "updatedAt": "2019-05-01T18:38:06.084Z",
  "devdoc": {
    "methods": {}
  },
  "userdoc": {
    "methods": {}
  }
}