{
  "contractName": "Splitwise",
  "abi": [
    {
      "anonymous": false,
      "inputs": [
        {
          "indexed": false,
          "name": "groupId",
          "type": "uint256"
        },
        {
          "indexed": false,
          "name": "participants",
          "type": "address[]"
        }
      ],
      "name": "GroupProposalSubmitted",
      "type": "event"
    },
    {
      "anonymous": false,
      "inputs": [
        {
          "indexed": false,
          "name": "groupId",
          "type": "uint256"
        },
        {
          "indexed": false,
          "name": "participant",
          "type": "address"
        }
      ],
      "name": "GroupConfirmationRegistered",
      "type": "event"
    },
    {
      "anonymous": false,
      "inputs": [
        {
          "indexed": false,
          "name": "groupId",
          "type": "uint256"
        },
        {
          "indexed": false,
          "name": "participants",
          "type": "address[]"
        }
      ],
      "name": "GroupCreated",
      "type": "event"
    },
    {
      "anonymous": false,
      "inputs": [
        {
          "indexed": false,
          "name": "groupId",
          "type": "uint256"
        }
      ],
      "name": "GroupProposalDeleted",
      "type": "event"
    },
    {
      "constant": false,
      "inputs": [
        {
          "name": "invitations",
          "type": "address[]"
        }
      ],
      "name": "registerGroupProposal",
      "outputs": [],
      "payable": false,
      "stateMutability": "nonpayable",
      "type": "function"
    },
    {
      "constant": false,
      "inputs": [
        {
          "name": "groupId",
          "type": "uint256"
        },
        {
          "name": "confirmation",
          "type": "bool"
        }
      ],
      "name": "registerGroupConfirmation",
      "outputs": [],
      "payable": false,
      "stateMutability": "nonpayable",
      "type": "function"
    }
  ],
  "bytecode": "0x6080604052600160005534801561001557600080fd5b50610b17806100256000396000f3fe60806040526004361061004c576000357c0100000000000000000000000000000000000000000000000000000000900463ffffffff1680630fa723c414610051578063537a6d3614610098575b600080fd5b34801561005d57600080fd5b506100966004803603604081101561007457600080fd5b810190808035906020019092919080351515906020019092919050505061011e565b005b3480156100a457600080fd5b5061011c600480360360208110156100bb57600080fd5b81019080803590602001906401000000008111156100d857600080fd5b8201836020820111156100ea57600080fd5b8035906020019184602083028401116401000000008311171561010c57600080fd5b9091929391929390505050610611565b005b60006101c4600160008581526020019081526020016000206000018054806020026020016040519081016040528092919081815260200182805480156101b957602002820191906000526020600020905b8160009054906101000a900473ffffffffffffffffffffffffffffffffffffffff1673ffffffffffffffffffffffffffffffffffffffff168152602001906001019080831161016f575b50505050503361080f565b905060016000848152602001908152602001600020600001805490508160ff161015156101f057600080fd5b81151561039e57600160008481526020019081526020016000206000018160ff1681548110151561021d57fe5b9060005260206000200160006101000a81549073ffffffffffffffffffffffffffffffffffffffff02191690556001600084815260200190815260200160002060010160003373ffffffffffffffffffffffffffffffffffffffff1673ffffffffffffffffffffffffffffffffffffffff16815260200190815260200160002060006101000a81549060ff02191690557f7743e64c1b93ddb6e58f7edc7d50ea6bf70522dd63c62f03ac77cc9294f833648333604051808381526020018273ffffffffffffffffffffffffffffffffffffffff1673ffffffffffffffffffffffffffffffffffffffff1681526020019250505060405180910390a160006001600085815260200190815260200160002060000180549050141561039857600160008481526020019081526020016000206000808201600061035e9190610970565b50507f997412f082558cf015b5fc48491ec36d6378d03531d3eb884ffafdea154e0cce836040518082815260200191505060405180910390a15b5061060d565b600180600085815260200190815260200160002060010160003373ffffffffffffffffffffffffffffffffffffffff1673ffffffffffffffffffffffffffffffffffffffff16815260200190815260200160002060006101000a81548160ff0219169083151502179055507f7743e64c1b93ddb6e58f7edc7d50ea6bf70522dd63c62f03ac77cc9294f833648333604051808381526020018273ffffffffffffffffffffffffffffffffffffffff1673ffffffffffffffffffffffffffffffffffffffff1681526020019250505060405180910390a160016000848152602001908152602001600020600001805490506104a960016000868152602001908152602001600020610892565b60ff16141561060b5760016000848152602001908152602001600020600001600260008581526020019081526020016000206000019080546104ec929190610991565b5060016002600085815260200190815260200160002060020160006101000a81548160ff02191690831515021790555060016000848152602001908152602001600020600080820160006105409190610970565b50507f56ee4b03d1f085bcbcafffc01ee542642270d5b8b17177648fd5ce6b0b8de5dc8360026000868152602001908152602001600020600001604051808381526020018060200182810382528381815481526020019150805480156105fb57602002820191906000526020600020905b8160009054906101000a900473ffffffffffffffffffffffffffffffffffffffff1673ffffffffffffffffffffffffffffffffffffffff16815260200190600101908083116105b1575b5050935050505060405180910390a15b505b5050565b60318282905010151561062357600080fd5b6000806000815480929190600101919050559050828260016000848152602001908152602001600020600001919061065c9291906109e3565b50600160008281526020019081526020016000206000013390806001815401808255809150509060018203906000526020600020016000909192909190916101000a81548173ffffffffffffffffffffffffffffffffffffffff021916908373ffffffffffffffffffffffffffffffffffffffff16021790555050600180600083815260200190815260200160002060010160003373ffffffffffffffffffffffffffffffffffffffff1673ffffffffffffffffffffffffffffffffffffffff16815260200190815260200160002060006101000a81548160ff0219169083151502179055507f9580681b71f54112dcf270118315b53416d23fd6a27edb4eded9ff6cfe90725a8160016000848152602001908152602001600020600001604051808381526020018060200182810382528381815481526020019150805480156107fb57602002820191906000526020600020905b8160009054906101000a900473ffffffffffffffffffffffffffffffffffffffff1673ffffffffffffffffffffffffffffffffffffffff16815260200190600101908083116107b1575b5050935050505060405180910390a1505050565b6000808351905060008090505b84518160ff16101561088757848160ff1681518110151561083957fe5b9060200190602002015173ffffffffffffffffffffffffffffffffffffffff168473ffffffffffffffffffffffffffffffffffffffff16141561087a578091505b808060010191505061081c565b508091505092915050565b6000806000905060008090505b83600001805490508160ff161015610966576000846000018260ff168154811015156108c757fe5b9060005260206000200160009054906101000a900473ffffffffffffffffffffffffffffffffffffffff169050600115158560010160008373ffffffffffffffffffffffffffffffffffffffff1673ffffffffffffffffffffffffffffffffffffffff16815260200190815260200160002060009054906101000a900460ff16151514156109585782806001019350505b50808060010191505061089f565b5080915050919050565b508054600082559060005260206000209081019061098e9190610a83565b50565b8280548282559060005260206000209081019282156109d25760005260206000209182015b828111156109d15782548255916001019190600101906109b6565b5b5090506109df9190610aa8565b5090565b828054828255906000526020600020908101928215610a72579160200282015b82811115610a7157823573ffffffffffffffffffffffffffffffffffffffff168260006101000a81548173ffffffffffffffffffffffffffffffffffffffff021916908373ffffffffffffffffffffffffffffffffffffffff16021790555091602001919060010190610a03565b5b509050610a7f9190610aa8565b5090565b610aa591905b80821115610aa1576000816000905550600101610a89565b5090565b90565b610ae891905b80821115610ae457600081816101000a81549073ffffffffffffffffffffffffffffffffffffffff021916905550600101610aae565b5090565b9056fea165627a7a72305820f8616a833371be85aa7e778689cfee1544f1c2daef004c0a1a6c826c7f1514bb0029",
  "source": "pragma solidity ^0.5.0;\n\ncontract Splitwise {\n\n  uint256 private idCounter = 1;\n\n  struct Group {\n    address[] participants;\n    mapping(address => mapping(address => uint256)) balances;\n    bool isSettledUp;\n  }\n\n  struct GroupProposal {\n    address[] participants;\n    mapping(address => bool) confirmations;\n  }\n\n  mapping(uint256 => GroupProposal) private groupProposals;\n\n  mapping(uint256 => Group) private groups;\n\n  function registerGroupProposal(address[] calldata invitations) external {\n    require(invitations.length < 49);\n\n    uint256 groupProposalId = idCounter++;\n    groupProposals[groupProposalId].participants = invitations;\n    groupProposals[groupProposalId].participants.push(msg.sender);\n    groupProposals[groupProposalId].confirmations[msg.sender] = true;\n    emit GroupProposalSubmitted(groupProposalId, groupProposals[groupProposalId].participants);\n  }\n\n  function registerGroupConfirmation(uint256 groupId, bool confirmation) external {\n    //Checking that sender is an invited group participant\n    uint8 index = getParticipantIndex(groupProposals[groupId].participants, msg.sender);\n    require(index < groupProposals[groupId].participants.length);\n\n    //Checking whether sender does not intend to be part of the group\n    if(!confirmation) {\n      delete groupProposals[groupId].participants[index];\n      delete groupProposals[groupId].confirmations[msg.sender];\n      emit GroupConfirmationRegistered(groupId, msg.sender);\n      if(groupProposals[groupId].participants.length == 0){\n        delete groupProposals[groupId];\n        emit GroupProposalDeleted(groupId);\n      }\n      return;\n    }\n    groupProposals[groupId].confirmations[msg.sender] = true;\n    emit GroupConfirmationRegistered(groupId, msg.sender);\n\n    //Checking wheater it is necessary to create a new group\n    if(getGroupConfirmationCount(groupProposals[groupId]) == groupProposals[groupId].participants.length){\n      groups[groupId].participants = groupProposals[groupId].participants;\n      groups[groupId].isSettledUp = true;\n      delete groupProposals[groupId];\n      emit GroupCreated(groupId, groups[groupId].participants);\n    }\n  }\n\n  function getGroupConfirmationCount(GroupProposal storage groupProposal) private view returns(uint8){\n    uint8 counter = 0;\n    for(uint8 i = 0; i < groupProposal.participants.length; i++){\n      address participant = groupProposal.participants[i];\n      if(groupProposal.confirmations[participant] == true) counter++;\n    }\n    return counter;\n  }\n\n  function getParticipantIndex(address[] memory participants, address sender) private pure returns(uint8){\n    uint8 index = uint8(participants.length);\n    for(uint8 i = 0; i < participants.length; i++){\n      if(sender == participants[i]) index = i;\n    }\n    return index;\n  }\n\n  event GroupProposalSubmitted(uint256 groupId, address[] participants);\n\n  event GroupConfirmationRegistered(uint256 groupId, address participant);\n\n  event GroupCreated(uint256 groupId, address[] participants);\n\n  event GroupProposalDeleted(uint256 groupId);\n}\n",
  "sourcePath": "/home/ferretti/blockchain/Splitwise/contracts/Splitwise.sol",
  "compiler": {
    "name": "solc",
    "version": "0.5.0+commit.1d4f565a.Emscripten.clang"
  },
  "schemaVersion": "3.0.6",
  "updatedAt": "2019-04-22T11:59:26.891Z",
  "devdoc": {
    "methods": {}
  },
  "userdoc": {
    "methods": {}
  }
}