{
  "contractName": "Splitwise",
  "abi": [
    {
      "inputs": [
        {
          "name": "splitwiseGroupAddress",
          "type": "address"
        }
      ],
      "payable": false,
      "stateMutability": "nonpayable",
      "type": "constructor",
      "signature": "constructor"
    },
    {
      "anonymous": false,
      "inputs": [
        {
          "indexed": false,
          "name": "deployer",
          "type": "address"
        }
      ],
      "name": "SplitwiseGroupDeployerRegistered",
      "type": "event",
      "signature": "0x9afe312d3ffae3702fcee13abdfcee1df26636b278287b115149cc0c40829197"
    },
    {
      "anonymous": false,
      "inputs": [
        {
          "indexed": false,
          "name": "groupId",
          "type": "uint256"
        },
        {
          "indexed": false,
          "name": "proposedParticipants",
          "type": "address[]"
        }
      ],
      "name": "GroupProposalSubmitted",
      "type": "event",
      "signature": "0x9580681b71f54112dcf270118315b53416d23fd6a27edb4eded9ff6cfe90725a"
    },
    {
      "anonymous": false,
      "inputs": [
        {
          "indexed": false,
          "name": "groupId",
          "type": "uint256"
        },
        {
          "indexed": false,
          "name": "proposedParticipants",
          "type": "address[]"
        },
        {
          "indexed": false,
          "name": "confirmations",
          "type": "address[]"
        },
        {
          "indexed": false,
          "name": "cancellations",
          "type": "address[]"
        }
      ],
      "name": "UserParticipantionRegistered",
      "type": "event",
      "signature": "0xb286cfe12dd6e45a2a5331f9445bd40b7f7001415de779ca81f192c25f663786"
    },
    {
      "anonymous": false,
      "inputs": [
        {
          "indexed": false,
          "name": "groupId",
          "type": "uint256"
        },
        {
          "indexed": false,
          "name": "proposedParticipants",
          "type": "address[]"
        },
        {
          "indexed": false,
          "name": "confirmations",
          "type": "address[]"
        },
        {
          "indexed": false,
          "name": "cancellations",
          "type": "address[]"
        }
      ],
      "name": "GroupProposalDeleted",
      "type": "event",
      "signature": "0x1ea2c6587c957da15603c879bd3a1060e2f8db82ef3a7d68778c8c78369f94ee"
    },
    {
      "anonymous": false,
      "inputs": [
        {
          "indexed": false,
          "name": "groupId",
          "type": "uint256"
        },
        {
          "indexed": false,
          "name": "proposedParticipants",
          "type": "address[]"
        },
        {
          "indexed": false,
          "name": "confirmations",
          "type": "address[]"
        },
        {
          "indexed": false,
          "name": "cancellations",
          "type": "address[]"
        }
      ],
      "name": "GroupCreated",
      "type": "event",
      "signature": "0x8c48706f102f4284cf37df0132fc3f4f6bb19c2a2f53ccd2ab7837afa4a763cf"
    },
    {
      "anonymous": false,
      "inputs": [
        {
          "indexed": false,
          "name": "groupId",
          "type": "uint256"
        },
        {
          "indexed": false,
          "name": "participants",
          "type": "address[]"
        }
      ],
      "name": "GroupDeleted",
      "type": "event",
      "signature": "0xacad04a7e1c86d10dc1141edf820922c1a80d97edf45234bbf58a33705967eea"
    },
    {
      "constant": false,
      "inputs": [],
      "name": "initSplitwiseGroup",
      "outputs": [],
      "payable": false,
      "stateMutability": "nonpayable",
      "type": "function",
      "signature": "0x63451027"
    },
    {
      "constant": false,
      "inputs": [
        {
          "name": "title",
          "type": "string"
        },
        {
          "name": "desiredParticipants",
          "type": "address[]"
        }
      ],
      "name": "registerGroupProposal",
      "outputs": [],
      "payable": false,
      "stateMutability": "nonpayable",
      "type": "function",
      "signature": "0x0a48b89b"
    },
    {
      "constant": false,
      "inputs": [
        {
          "name": "groupProposalId",
          "type": "uint256"
        },
        {
          "name": "confirmation",
          "type": "bool"
        }
      ],
      "name": "submitUserParticipation",
      "outputs": [],
      "payable": false,
      "stateMutability": "nonpayable",
      "type": "function",
      "signature": "0xfeade52b"
    },
    {
      "constant": false,
      "inputs": [
        {
          "name": "groupId",
          "type": "uint256"
        }
      ],
      "name": "deleteGroup",
      "outputs": [],
      "payable": false,
      "stateMutability": "nonpayable",
      "type": "function",
      "signature": "0x45d88d2d"
    },
    {
      "constant": true,
      "inputs": [],
      "name": "getUserGroups",
      "outputs": [
        {
          "name": "",
          "type": "uint256[]"
        }
      ],
      "payable": false,
      "stateMutability": "view",
      "type": "function",
      "signature": "0xd8314ffc"
    },
    {
      "constant": true,
      "inputs": [
        {
          "name": "groupId",
          "type": "uint256"
        }
      ],
      "name": "getGroup",
      "outputs": [
        {
          "name": "",
          "type": "string"
        },
        {
          "name": "",
          "type": "address[]"
        }
      ],
      "payable": false,
      "stateMutability": "view",
      "type": "function",
      "signature": "0xceb60654"
    },
    {
      "constant": true,
      "inputs": [],
      "name": "getUserGroupProposals",
      "outputs": [
        {
          "name": "",
          "type": "uint256[]"
        }
      ],
      "payable": false,
      "stateMutability": "view",
      "type": "function",
      "signature": "0xdcfa73bb"
    },
    {
      "constant": true,
      "inputs": [
        {
          "name": "groupProposalId",
          "type": "uint256"
        }
      ],
      "name": "getGroupProposal",
      "outputs": [
        {
          "name": "",
          "type": "string"
        },
        {
          "name": "",
          "type": "address[]"
        },
        {
          "name": "",
          "type": "address[]"
        },
        {
          "name": "",
          "type": "address[]"
        }
      ],
      "payable": false,
      "stateMutability": "view",
      "type": "function",
      "signature": "0xc0bce22f"
    }
  ],
  "bytecode": "0x608060405234801561001057600080fd5b506040516020806123a38339810180604052602081101561003057600080fd5b8101908080519060200190929190505050806000806101000a81548173ffffffffffffffffffffffffffffffffffffffff021916908373ffffffffffffffffffffffffffffffffffffffff16021790555050612312806100916000396000f3fe60806040526004361061008e576000357c0100000000000000000000000000000000000000000000000000000000900463ffffffff1680630a48b89b1461009357806345d88d2d1461016e57806363451027146101a9578063c0bce22f146101c0578063ceb606541461034c578063d8314ffc14610448578063dcfa73bb146104b4578063feade52b14610520575b600080fd5b34801561009f57600080fd5b5061016c600480360360408110156100b657600080fd5b81019080803590602001906401000000008111156100d357600080fd5b8201836020820111156100e557600080fd5b8035906020019184600183028401116401000000008311171561010757600080fd5b90919293919293908035906020019064010000000081111561012857600080fd5b82018360208201111561013a57600080fd5b8035906020019184602083028401116401000000008311171561015c57600080fd5b9091929391929390505050610567565b005b34801561017a57600080fd5b506101a76004803603602081101561019157600080fd5b810190808035906020019092919050505061082c565b005b3480156101b557600080fd5b506101be610d21565b005b3480156101cc57600080fd5b506101f9600480360360208110156101e357600080fd5b8101908080359060200190929190505050610e4b565b6040518080602001806020018060200180602001858103855289818151815260200191508051906020019080838360005b8381101561024557808201518184015260208101905061022a565b50505050905090810190601f1680156102725780820380516001836020036101000a031916815260200191505b50858103845288818151815260200191508051906020019060200280838360005b838110156102ae578082015181840152602081019050610293565b50505050905001858103835287818151815260200191508051906020019060200280838360005b838110156102f05780820151818401526020810190506102d5565b50505050905001858103825286818151815260200191508051906020019060200280838360005b83811015610332578082015181840152602081019050610317565b505050509050019850505050505050505060405180910390f35b34801561035857600080fd5b506103856004803603602081101561036f57600080fd5b81019080803590602001909291905050506111ea565b604051808060200180602001838103835285818151815260200191508051906020019080838360005b838110156103c95780820151818401526020810190506103ae565b50505050905090810190601f1680156103f65780820380516001836020036101000a031916815260200191505b50838103825284818151815260200191508051906020019060200280838360005b83811015610432578082015181840152602081019050610417565b5050505090500194505050505060405180910390f35b34801561045457600080fd5b5061045d6114e2565b6040518080602001828103825283818151815260200191508051906020019060200280838360005b838110156104a0578082015181840152602081019050610485565b505050509050019250505060405180910390f35b3480156104c057600080fd5b506104c9611577565b6040518080602001828103825283818151815260200191508051906020019060200280838360005b8381101561050c5780820151818401526020810190506104f1565b505050509050019250505060405180910390f35b34801561052c57600080fd5b506105656004803603604081101561054357600080fd5b810190808035906020019092919080351515906020019092919050505061160c565b005b600060606000809054906101000a900473ffffffffffffffffffffffffffffffffffffffff1673ffffffffffffffffffffffffffffffffffffffff16630a48b89b878787876040518563ffffffff167c01000000000000000000000000000000000000000000000000000000000281526004018080602001806020018381038352878782818152602001925080828437600081840152601f19601f8201169050808301925050508381038252858582818152602001925060200280828437600081840152601f19601f8201169050808301925050509650505050505050600060405180830381600087803b15801561065e57600080fd5b505af1158015610672573d6000803e3d6000fd5b505050506040513d6000823e3d601f19601f82011682018060405250604081101561069c57600080fd5b810190808051906020019092919080516401000000008111156106be57600080fd5b828101905060208101848111156106d457600080fd5b81518560208202830111640100000000821117156106f157600080fd5b5050929190505050809250819350505060008090505b81518160ff1610156107a35760026000838360ff1681518110151561072857fe5b9060200190602002015173ffffffffffffffffffffffffffffffffffffffff1673ffffffffffffffffffffffffffffffffffffffff1681526020019081526020016000208390806001815401808255809150509060018203906000526020600020016000909192909190915055508080600101915050610707565b507f9580681b71f54112dcf270118315b53416d23fd6a27edb4eded9ff6cfe90725a82826040518083815260200180602001828103825283818151815260200191508051906020019060200280838360005b838110156108105780820151818401526020810190506107f5565b50505050905001935050505060405180910390a1505050505050565b60006108c582600260003373ffffffffffffffffffffffffffffffffffffffff1673ffffffffffffffffffffffffffffffffffffffff1681526020019081526020016000208054806020026020016040519081016040528092919081815260200182805480156108bb57602002820191906000526020600020905b8154815260200190600101908083116108a7575b5050505050611e0c565b9050600260003373ffffffffffffffffffffffffffffffffffffffff1673ffffffffffffffffffffffffffffffffffffffff168152602001908152602001600020805490508160ff16101515610983576040517f08c379a00000000000000000000000000000000000000000000000000000000081526004018080602001828103825260178152602001807f4e6f7420612067726f7570207061727469636970616e7400000000000000000081525060200191505060405180910390fd5b60606000809054906101000a900473ffffffffffffffffffffffffffffffffffffffff1673ffffffffffffffffffffffffffffffffffffffff166345d88d2d846040518263ffffffff167c010000000000000000000000000000000000000000000000000000000002815260040180828152602001915050600060405180830381600087803b158015610a1557600080fd5b505af1158015610a29573d6000803e3d6000fd5b505050506040513d6000823e3d601f19601f820116820180604052506020811015610a5357600080fd5b810190808051640100000000811115610a6b57600080fd5b82810190506020810184811115610a8157600080fd5b8151856020820283011164010000000082111715610a9e57600080fd5b5050929190505050905060008090505b81518160ff161015610c9b57610b6b8460026000858560ff16815181101515610ad357fe5b9060200190602002015173ffffffffffffffffffffffffffffffffffffffff1673ffffffffffffffffffffffffffffffffffffffff168152602001908152602001600020805480602002602001604051908101604052809291908181526020018280548015610b6157602002820191906000526020600020905b815481526020019060010190808311610b4d575b5050505050611e0c565b9250610c218360ff1660026000858560ff16815181101515610b8957fe5b9060200190602002015173ffffffffffffffffffffffffffffffffffffffff1673ffffffffffffffffffffffffffffffffffffffff168152602001908152602001600020805480602002602001604051908101604052809291908181526020018280548015610c1757602002820191906000526020600020905b815481526020019060010190808311610c03575b5050505050611e64565b60026000848460ff16815181101515610c3657fe5b9060200190602002015173ffffffffffffffffffffffffffffffffffffffff1673ffffffffffffffffffffffffffffffffffffffff1681526020019081526020016000209080519060200190610c8d929190612274565b508080600101915050610aae565b507facad04a7e1c86d10dc1141edf820922c1a80d97edf45234bbf58a33705967eea83826040518083815260200180602001828103825283818151815260200191508051906020019060200280838360005b83811015610d08578082015181840152602081019050610ced565b50505050905001935050505060405180910390a1505050565b60008060009054906101000a900473ffffffffffffffffffffffffffffffffffffffff1673ffffffffffffffffffffffffffffffffffffffff1663e1c7392a6040518163ffffffff167c0100000000000000000000000000000000000000000000000000000000028152600401602060405180830381600087803b158015610da857600080fd5b505af1158015610dbc573d6000803e3d6000fd5b505050506040513d6020811015610dd257600080fd5b810190808051906020019092919050505090507f9afe312d3ffae3702fcee13abdfcee1df26636b278287b115149cc0c4082919781604051808273ffffffffffffffffffffffffffffffffffffffff1673ffffffffffffffffffffffffffffffffffffffff16815260200191505060405180910390a150565b6060806060806000610eea86600260003373ffffffffffffffffffffffffffffffffffffffff1673ffffffffffffffffffffffffffffffffffffffff168152602001908152602001600020805480602002602001604051908101604052809291908181526020018280548015610ee057602002820191906000526020600020905b815481526020019060010190808311610ecc575b5050505050611e0c565b9050600260003373ffffffffffffffffffffffffffffffffffffffff1673ffffffffffffffffffffffffffffffffffffffff168152602001908152602001600020805490508160ff16101515610fce576040517f08c379a000000000000000000000000000000000000000000000000000000000815260040180806020018281038252603c8152602001807f546865207370656369666965642067726f75702070726f706f73616c2069732081526020017f6e6f74206173736f63696174656420746f206d73672e73656e6465720000000081525060400191505060405180910390fd5b6000809054906101000a900473ffffffffffffffffffffffffffffffffffffffff1673ffffffffffffffffffffffffffffffffffffffff1663c0bce22f876040518263ffffffff167c01000000000000000000000000000000000000000000000000000000000281526004018082815260200191505060006040518083038186803b15801561105c57600080fd5b505afa158015611070573d6000803e3d6000fd5b505050506040513d6000823e3d601f19601f82011682018060405250608081101561109a57600080fd5b8101908080516401000000008111156110b257600080fd5b828101905060208101848111156110c857600080fd5b81518560018202830111640100000000821117156110e557600080fd5b5050929190602001805164010000000081111561110157600080fd5b8281019050602081018481111561111757600080fd5b815185602082028301116401000000008211171561113457600080fd5b5050929190602001805164010000000081111561115057600080fd5b8281019050602081018481111561116657600080fd5b815185602082028301116401000000008211171561118357600080fd5b5050929190602001805164010000000081111561119f57600080fd5b828101905060208101848111156111b557600080fd5b81518560208202830111640100000000821117156111d257600080fd5b50509291905050509450945094509450509193509193565b606080600061128684600160003373ffffffffffffffffffffffffffffffffffffffff1673ffffffffffffffffffffffffffffffffffffffff16815260200190815260200160002080548060200260200160405190810160405280929190818152602001828054801561127c57602002820191906000526020600020905b815481526020019060010190808311611268575b5050505050611e0c565b9050600160003373ffffffffffffffffffffffffffffffffffffffff1673ffffffffffffffffffffffffffffffffffffffff168152602001908152602001600020805490508160ff1610151561136a576040517f08c379a00000000000000000000000000000000000000000000000000000000081526004018080602001828103825260338152602001807f546865207370656369666965642067726f7570206973206e6f74206173736f6381526020017f696174656420746f206d73672e73656e6465720000000000000000000000000081525060400191505060405180910390fd5b6000809054906101000a900473ffffffffffffffffffffffffffffffffffffffff1673ffffffffffffffffffffffffffffffffffffffff1663ceb60654856040518263ffffffff167c01000000000000000000000000000000000000000000000000000000000281526004018082815260200191505060006040518083038186803b1580156113f857600080fd5b505afa15801561140c573d6000803e3d6000fd5b505050506040513d6000823e3d601f19601f82011682018060405250604081101561143657600080fd5b81019080805164010000000081111561144e57600080fd5b8281019050602081018481111561146457600080fd5b815185600182028301116401000000008211171561148157600080fd5b5050929190602001805164010000000081111561149d57600080fd5b828101905060208101848111156114b357600080fd5b81518560208202830111640100000000821117156114d057600080fd5b50509291905050509250925050915091565b6060600160003373ffffffffffffffffffffffffffffffffffffffff1673ffffffffffffffffffffffffffffffffffffffff16815260200190815260200160002080548060200260200160405190810160405280929190818152602001828054801561156d57602002820191906000526020600020905b815481526020019060010190808311611559575b5050505050905090565b6060600260003373ffffffffffffffffffffffffffffffffffffffff1673ffffffffffffffffffffffffffffffffffffffff16815260200190815260200160002080548060200260200160405190810160405280929190818152602001828054801561160257602002820191906000526020600020905b8154815260200190600101908083116115ee575b5050505050905090565b6000606080606060008060006116af89600260003373ffffffffffffffffffffffffffffffffffffffff1673ffffffffffffffffffffffffffffffffffffffff1681526020019081526020016000208054806020026020016040519081016040528092919081815260200182805480156116a557602002820191906000526020600020905b815481526020019060010190808311611691575b5050505050611e0c565b9050600260003373ffffffffffffffffffffffffffffffffffffffff1673ffffffffffffffffffffffffffffffffffffffff168152602001908152602001600020805490508160ff1610151561176d576040517f08c379a00000000000000000000000000000000000000000000000000000000081526004018080602001828103825260178152602001807f4e6f7420612067726f7570207061727469636970616e7400000000000000000081525060200191505060405180910390fd5b6000809054906101000a900473ffffffffffffffffffffffffffffffffffffffff1673ffffffffffffffffffffffffffffffffffffffff1663feade52b8a8a6040518363ffffffff167c0100000000000000000000000000000000000000000000000000000000028152600401808381526020018215151515815260200192505050600060405180830381600087803b15801561180957600080fd5b505af115801561181d573d6000803e3d6000fd5b505050506040513d6000823e3d601f19601f8201168201806040525060c081101561184757600080fd5b8101908080519060200190929190805164010000000081111561186957600080fd5b8281019050602081018481111561187f57600080fd5b815185602082028301116401000000008211171561189c57600080fd5b505092919060200180516401000000008111156118b857600080fd5b828101905060208101848111156118ce57600080fd5b81518560208202830111640100000000821117156118eb57600080fd5b5050929190602001805164010000000081111561190757600080fd5b8281019050602081018481111561191d57600080fd5b815185602082028301116401000000008211171561193a57600080fd5b50509291906020018051906020019092919080519060200190929190505050809750819850829950839a50849b50859c50505050505050871515611a6657611a128160ff16600260003373ffffffffffffffffffffffffffffffffffffffff1673ffffffffffffffffffffffffffffffffffffffff168152602001908152602001600020805480602002602001604051908101604052809291908181526020018280548015611a0857602002820191906000526020600020905b8154815260200190600101908083116119f4575b5050505050611e64565b600260003373ffffffffffffffffffffffffffffffffffffffff1673ffffffffffffffffffffffffffffffffffffffff1681526020019081526020016000209080519060200190611a64929190612274565b505b82158015611a72575081155b15611b8e577fb286cfe12dd6e45a2a5331f9445bd40b7f7001415de779ca81f192c25f6637868787878760405180858152602001806020018060200180602001848103845287818151815260200191508051906020019060200280838360005b83811015611aed578082015181840152602081019050611ad2565b50505050905001848103835286818151815260200191508051906020019060200280838360005b83811015611b2f578082015181840152602081019050611b14565b50505050905001848103825285818151815260200191508051906020019060200280838360005b83811015611b71578082015181840152602081019050611b56565b5050505090500197505050505050505060405180910390a1611e01565b82158015611b995750815b15611cbf57611ba88787611f6a565b7f1ea2c6587c957da15603c879bd3a1060e2f8db82ef3a7d68778c8c78369f94ee8787878760405180858152602001806020018060200180602001848103845287818151815260200191508051906020019060200280838360005b83811015611c1e578082015181840152602081019050611c03565b50505050905001848103835286818151815260200191508051906020019060200280838360005b83811015611c60578082015181840152602081019050611c45565b50505050905001848103825285818151815260200191508051906020019060200280838360005b83811015611ca2578082015181840152602081019050611c87565b5050505090500197505050505050505060405180910390a1611e00565b828015611cca575081155b15611dfa57611cd98787611f6a565b611ce387866121cd565b7f8c48706f102f4284cf37df0132fc3f4f6bb19c2a2f53ccd2ab7837afa4a763cf8787878760405180858152602001806020018060200180602001848103845287818151815260200191508051906020019060200280838360005b83811015611d59578082015181840152602081019050611d3e565b50505050905001848103835286818151815260200191508051906020019060200280838360005b83811015611d9b578082015181840152602081019050611d80565b50505050905001848103825285818151815260200191508051906020019060200280838360005b83811015611ddd578082015181840152602081019050611dc2565b5050505090500197505050505050505060405180910390a1611dff565b600080fd5b5b5b505050505050505050565b600080600090505b82518160ff161015611e5857828160ff16815181101515611e3157fe5b90602001906020020151841415611e4b5780915050611e5e565b8080600101915050611e14565b50815190505b92915050565b6060815183101515611e7857819050611f64565b60606001835103604051908082528060200260200182016040528015611ead5781602001602082028038833980820191505090505b50905060008090505b83518160ff161015611f5e57848160ff161015611f0857838160ff16815181101515611ede57fe5b90602001906020020151828260ff16815181101515611ef957fe5b90602001906020020181815250505b848160ff161115611f5157838160ff16815181101515611f2457fe5b90602001906020020151826001830360ff16815181101515611f4257fe5b90602001906020020181815250505b8080600101915050611eb6565b50809150505b92915050565b600080600090505b82518160ff1610156121c75761202f8460026000868560ff16815181101515611f9757fe5b9060200190602002015173ffffffffffffffffffffffffffffffffffffffff1673ffffffffffffffffffffffffffffffffffffffff16815260200190815260200160002080548060200260200160405190810160405280929190818152602001828054801561202557602002820191906000526020600020905b815481526020019060010190808311612011575b5050505050611e0c565b915060026000848360ff1681518110151561204657fe5b9060200190602002015173ffffffffffffffffffffffffffffffffffffffff1673ffffffffffffffffffffffffffffffffffffffff168152602001908152602001600020805490508260ff1610156121ba5761214c8260ff1660026000868560ff168151811015156120b457fe5b9060200190602002015173ffffffffffffffffffffffffffffffffffffffff1673ffffffffffffffffffffffffffffffffffffffff16815260200190815260200160002080548060200260200160405190810160405280929190818152602001828054801561214257602002820191906000526020600020905b81548152602001906001019080831161212e575b5050505050611e64565b60026000858460ff1681518110151561216157fe5b9060200190602002015173ffffffffffffffffffffffffffffffffffffffff1673ffffffffffffffffffffffffffffffffffffffff16815260200190815260200160002090805190602001906121b8929190612274565b505b8080600101915050611f72565b50505050565b60008090505b81518160ff16101561226f5760016000838360ff168151811015156121f457fe5b9060200190602002015173ffffffffffffffffffffffffffffffffffffffff1673ffffffffffffffffffffffffffffffffffffffff16815260200190815260200160002083908060018154018082558091505090600182039060005260206000200160009091929091909150555080806001019150506121d3565b505050565b8280548282559060005260206000209081019282156122b0579160200282015b828111156122af578251825591602001919060010190612294565b5b5090506122bd91906122c1565b5090565b6122e391905b808211156122df5760008160009055506001016122c7565b5090565b9056fea165627a7a72305820516f923aa1441a6c39fc5795a7d23a009d475b36fb68d9b6889cbcd41f4479bb0029",
  "source": "pragma solidity ^0.5.0;\n\nimport \"./SplitwiseGroup.sol\";\n\ncontract Splitwise {\n\n  SplitwiseGroup swGroup;\n\n  mapping(address => uint256[]) userGroups;\n  mapping(address => uint256[]) userGroupProposals;\n\n  constructor(address splitwiseGroupAddress) public {\n    swGroup = SplitwiseGroup(splitwiseGroupAddress);\n  }\n\n  function initSplitwiseGroup() external {\n    address deployer = swGroup.init();\n    emit SplitwiseGroupDeployerRegistered(deployer);\n  }\n\n  function registerGroupProposal(string calldata title, address[] calldata desiredParticipants) external {\n    uint256 groupProposalId;\n    address[] memory participants;\n\n    (groupProposalId, participants) = swGroup.registerGroupProposal(title, desiredParticipants);\n    for(uint8 i = 0; i < participants.length; i++)\n      userGroupProposals[participants[i]].push(groupProposalId);\n\n    emit GroupProposalSubmitted(groupProposalId, participants);\n  }\n\n  function submitUserParticipation(uint256 groupProposalId, bool confirmation) external {\n    uint256 id;\n    address[] memory proposedParticipants;\n    address[] memory confirmations;\n    address[] memory cancellations;\n    bool isGroupCreated;\n    bool isGroupProposalCancelled;\n\n    uint8 index = getGroupIndex(groupProposalId, userGroupProposals[msg.sender]);\n    require(index < userGroupProposals[msg.sender].length, \"Not a group participant\");\n\n    (id, proposedParticipants, confirmations, cancellations, isGroupCreated, isGroupProposalCancelled)\n      = swGroup.submitUserParticipation(groupProposalId, confirmation);\n\n    if(!confirmation) userGroupProposals[msg.sender] = removeGroupByIndex(index, userGroupProposals[msg.sender]);\n    if(!isGroupCreated && !isGroupProposalCancelled) {\n      emit UserParticipantionRegistered(id, proposedParticipants, confirmations, cancellations);\n    }else if(!isGroupCreated && isGroupProposalCancelled) {\n      deleteGroupProposal(id, proposedParticipants);\n      emit GroupProposalDeleted(id, proposedParticipants, confirmations, cancellations);\n    }else if(isGroupCreated && !isGroupProposalCancelled){\n      deleteGroupProposal(id, proposedParticipants);\n      registerNewGroup(id, confirmations);\n      emit GroupCreated(id, proposedParticipants, confirmations, cancellations);\n    }else revert();\n  }\n\n  function deleteGroup(uint256 groupId) external {\n    uint8 index = getGroupIndex(groupId, userGroupProposals[msg.sender]);\n    require(index < userGroupProposals[msg.sender].length, \"Not a group participant\");\n\n    address[] memory participants = swGroup.deleteGroup(groupId);\n    for(uint8 i = 0; i < participants.length; i++){\n      index = getGroupIndex(groupId, userGroupProposals[participants[i]]);\n      userGroupProposals[participants[i]] = removeGroupByIndex(index, userGroupProposals[participants[i]]);\n    }\n    emit GroupDeleted(groupId, participants);\n  }\n\n  /*************** GETTER FUNCTIONS ****************/\n\n  function getUserGroups() external view returns(uint256[] memory){\n    return userGroups[msg.sender];\n  }\n\n  function getGroup(uint256 groupId) external view returns(string memory, address[] memory){\n    uint8 index = getGroupIndex(groupId, userGroups[msg.sender]);\n    require(index < userGroups[msg.sender].length, \"The specified group is not associated to msg.sender\");\n    return swGroup.getGroup(groupId);\n  }\n\n  function getUserGroupProposals() external view returns(uint256[] memory){\n    return userGroupProposals[msg.sender];\n  }\n\n  function getGroupProposal(uint256 groupProposalId) external view\n    returns (string memory, address[] memory, address[] memory, address[] memory){\n    uint8 index = getGroupIndex(groupProposalId, userGroupProposals[msg.sender]);\n    require(index < userGroupProposals[msg.sender].length, \"The specified group proposal is not associated to msg.sender\");\n    return swGroup.getGroupProposal(groupProposalId);\n  }\n\n  /*************** PRIVATE FUNCTIONS ****************/\n\n  function deleteGroupProposal(uint256 groupProposalId, address[] memory users) private {\n    uint8 index;\n\n    for(uint8 i = 0; i < users.length; i++){\n      index = getGroupIndex(groupProposalId, userGroupProposals[users[i]]);\n      if(index < userGroupProposals[users[i]].length)\n        userGroupProposals[users[i]] = removeGroupByIndex(index, userGroupProposals[users[i]]);\n    }\n  }\n\n  function registerNewGroup(uint256 groupId, address[] memory users) private {\n    for(uint8 i = 0; i < users.length; i++){\n      userGroups[users[i]].push(groupId);\n    }\n  }\n\n  /*************** EVENTS ****************/\n\n  event SplitwiseGroupDeployerRegistered(address deployer);\n\n  event GroupProposalSubmitted(uint256 groupId, address[] proposedParticipants);\n\n  event UserParticipantionRegistered(uint256 groupId, address[] proposedParticipants, address[] confirmations, address[] cancellations);\n\n  event GroupProposalDeleted(uint256 groupId, address[] proposedParticipants, address[] confirmations, address[] cancellations);\n\n  event GroupCreated(uint256 groupId, address[] proposedParticipants, address[] confirmations, address[] cancellations);\n\n  event GroupDeleted(uint256 groupId, address[] participants);\n\n  /*************** LIBRARY FUNCTIONS ****************/\n\n  function getGroupIndex(uint256 groupId, uint256[] memory groups) private pure returns(uint8){\n    for(uint8 i = 0; i < groups.length; i++){\n      if(groupId == groups[i]) return i;\n    }\n    return uint8(groups.length);\n  }\n\n  function removeGroupByIndex(uint index, uint256[] memory groups) private pure returns(uint256[] memory) {\n        if (index >= groups.length) return groups;\n\n        uint256[] memory newGroups = new uint256[](groups.length - 1);\n        for (uint8 i = 0; i < groups.length; i++){\n            if(i < index) newGroups[i] = groups[i];\n            if(i > index) newGroups[i - 1] = groups[i];\n        }\n        return newGroups;\n  }\n}\n",
  "sourcePath": "/home/ferretti/blockchain/Splitwise/contracts/Splitwise.sol",
  "compiler": {
    "name": "solc",
    "version": "0.5.0+commit.1d4f565a.Emscripten.clang"
  },
  "schemaVersion": "3.0.6",
  "updatedAt": "2019-05-15T20:03:59.785Z",
  "devdoc": {
    "methods": {}
  },
  "userdoc": {
    "methods": {
      "getUserGroups()": {
        "notice": "************* GETTER FUNCTIONS ***************"
      }
    }
  }
}