{
  "contractName": "SplitwiseGroup",
  "abi": [
    {
      "inputs": [],
      "payable": false,
      "stateMutability": "nonpayable",
      "type": "constructor"
    },
    {
      "constant": false,
      "inputs": [
        {
          "name": "title",
          "type": "string"
        },
        {
          "name": "participants",
          "type": "address[]"
        }
      ],
      "name": "registerGroupProposal",
      "outputs": [
        {
          "name": "",
          "type": "uint256"
        },
        {
          "name": "",
          "type": "address[]"
        }
      ],
      "payable": false,
      "stateMutability": "nonpayable",
      "type": "function"
    },
    {
      "constant": false,
      "inputs": [
        {
          "name": "groupId",
          "type": "uint256"
        }
      ],
      "name": "deleteGroup",
      "outputs": [
        {
          "name": "",
          "type": "address[]"
        }
      ],
      "payable": false,
      "stateMutability": "nonpayable",
      "type": "function"
    },
    {
      "constant": false,
      "inputs": [
        {
          "name": "groupId",
          "type": "uint256"
        },
        {
          "name": "confirmation",
          "type": "bool"
        }
      ],
      "name": "submitUserParticipation",
      "outputs": [
        {
          "name": "",
          "type": "uint256"
        },
        {
          "name": "",
          "type": "address[]"
        },
        {
          "name": "",
          "type": "bool"
        },
        {
          "name": "",
          "type": "bool"
        }
      ],
      "payable": false,
      "stateMutability": "nonpayable",
      "type": "function"
    }
  ],
  "bytecode": "0x6080604052600160005534801561001557600080fd5b5033600160006101000a81548173ffffffffffffffffffffffffffffffffffffffff021916908373ffffffffffffffffffffffffffffffffffffffff1602179055506115bb806100666000396000f3fe608060405260043610610057576000357c0100000000000000000000000000000000000000000000000000000000900463ffffffff1680630a48b89b1461005c57806345d88d2d14610193578063feade52b14610223575b600080fd5b34801561006857600080fd5b506101356004803603604081101561007f57600080fd5b810190808035906020019064010000000081111561009c57600080fd5b8201836020820111156100ae57600080fd5b803590602001918460018302840111640100000000831117156100d057600080fd5b9091929391929390803590602001906401000000008111156100f157600080fd5b82018360208201111561010357600080fd5b8035906020019184602083028401116401000000008311171561012557600080fd5b90919293919293905050506102dc565b6040518083815260200180602001828103825283818151815260200191508051906020019060200280838360005b8381101561017e578082015181840152602081019050610163565b50505050905001935050505060405180910390f35b34801561019f57600080fd5b506101cc600480360360208110156101b657600080fd5b81019080803590602001909291905050506106db565b6040518080602001828103825283818151815260200191508051906020019060200280838360005b8381101561020f5780820151818401526020810190506101f4565b505050509050019250505060405180910390f35b34801561022f57600080fd5b506102686004803603604081101561024657600080fd5b81019080803590602001909291908035151590602001909291905050506107dd565b60405180858152602001806020018415151515815260200183151515158152602001828103825285818151815260200191508051906020019060200280838360005b838110156102c55780820151818401526020810190506102aa565b505050509050019550505050505060405180910390f35b60006060600284849050101515156102f357600080fd5b6032848490501115151561030657600080fd5b600080600081548092919060010191905055905060008090505b858590508160ff1610156105a95760026000838152602001908152602001600020600301600087878460ff16818110151561035757fe5b9050602002013573ffffffffffffffffffffffffffffffffffffffff1673ffffffffffffffffffffffffffffffffffffffff1673ffffffffffffffffffffffffffffffffffffffff16815260200190815260200160002060009054906101000a900460ff16151561059c576002600083815260200190815260200160002060010186868360ff1681811015156103e957fe5b9050602002013573ffffffffffffffffffffffffffffffffffffffff1690806001815401808255809150509060018203906000526020600020016000909192909190916101000a81548173ffffffffffffffffffffffffffffffffffffffff021916908373ffffffffffffffffffffffffffffffffffffffff16021790555050600160026000848152602001908152602001600020600301600088888560ff16818110151561049457fe5b9050602002013573ffffffffffffffffffffffffffffffffffffffff1673ffffffffffffffffffffffffffffffffffffffff1673ffffffffffffffffffffffffffffffffffffffff16815260200190815260200160002060006101000a81548160ff021916908315150217905550600060026000848152602001908152602001600020600201600088888560ff16818110151561052d57fe5b9050602002013573ffffffffffffffffffffffffffffffffffffffff1673ffffffffffffffffffffffffffffffffffffffff1673ffffffffffffffffffffffffffffffffffffffff16815260200190815260200160002060006101000a81548160ff0219169083151502179055505b8080600101915050610320565b5086866002600084815260200190815260200160002060000191906105cf92919061139d565b5060006002600083815260200190815260200160002060040160006101000a81548160ff02191690831515021790555060006002600083815260200190815260200160002060040160016101000a81548160ff0219169083151502179055508060026000838152602001908152602001600020600101808054806020026020016040519081016040528092919081815260200182805480156106c657602002820191906000526020600020905b8160009054906101000a900473ffffffffffffffffffffffffffffffffffffffff1673ffffffffffffffffffffffffffffffffffffffff168152602001906001019080831161067c575b50505050509050925092505094509492505050565b606060016003600084815260200190815260200160002060020160006101000a81548160ff02191690831515021790555060006003600084815260200190815260200160002060020160016101000a81548160ff021916908315150217905550600360008381526020019081526020016000206001018054806020026020016040519081016040528092919081815260200182805480156107d157602002820191906000526020600020905b8160009054906101000a900473ffffffffffffffffffffffffffffffffffffffff1673ffffffffffffffffffffffffffffffffffffffff1681526020019060010190808311610787575b50505050509050919050565b600060606000806002600087815260200190815260200160002060040160009054906101000a900460ff1615151561087d576040517f08c379a000000000000000000000000000000000000000000000000000000000815260040180806020018281038252601f8152602001807f416c72656164792072656a65637465642067726f75702070726f706f73616c0081525060200191505060405180910390fd5b6002600087815260200190815260200160002060040160019054906101000a900460ff16151515610916576040517f08c379a000000000000000000000000000000000000000000000000000000000815260040180806020018281038252601f8152602001807f416c726561647920617070726f7665642067726f75702070726f706f73616c0081525060200191505060405180910390fd5b60006109bc600260008981526020019081526020016000206001018054806020026020016040519081016040528092919081815260200182805480156109b157602002820191906000526020600020905b8160009054906101000a900473ffffffffffffffffffffffffffffffffffffffff1673ffffffffffffffffffffffffffffffffffffffff1681526020019060010190808311610967575b505050505033610ba8565b905060026000888152602001908152602001600020600101805490508160ff16101515610a51576040517f08c379a00000000000000000000000000000000000000000000000000000000081526004018080602001828103825260178152602001807f4e6f7420612067726f7570207061727469636970616e7400000000000000000081525060200191505060405180910390fd5b8515610af657610a6087610c2c565b82805480602002602001604051908101604052809291908181526020018280548015610ae157602002820191906000526020600020905b8160009054906101000a900473ffffffffffffffffffffffffffffffffffffffff1673ffffffffffffffffffffffffffffffffffffffff1681526020019060010190808311610a97575b50505050509250945094509450945050610b9f565b851515610b9d57610b078782610e88565b82805480602002602001604051908101604052809291908181526020018280548015610b8857602002820191906000526020600020905b8160009054906101000a900473ffffffffffffffffffffffffffffffffffffffff1673ffffffffffffffffffffffffffffffffffffffff1681526020019060010190808311610b3e575b50505050509250945094509450945050610b9f565b505b92959194509250565b600080600090505b83518160ff161015610c2057838160ff16815181101515610bcd57fe5b9060200190602002015173ffffffffffffffffffffffffffffffffffffffff168373ffffffffffffffffffffffffffffffffffffffff161415610c135780915050610c26565b8080600101915050610bb0565b50825190505b92915050565b60008060008060016002600087815260200190815260200160002060020160003373ffffffffffffffffffffffffffffffffffffffff1673ffffffffffffffffffffffffffffffffffffffff16815260200190815260200160002060006101000a81548160ff0219169083151502179055506002600086815260200190815260200160002060010180549050610cd360026000888152602001908152602001600020611075565b60ff161415610e5b57610e2f8560026000888152602001908152602001600020600101805480602002602001604051908101604052809291908181526020018280548015610d7657602002820191906000526020600020905b8160009054906101000a900473ffffffffffffffffffffffffffffffffffffffff1673ffffffffffffffffffffffffffffffffffffffff1681526020019060010190808311610d2c575b5050505050600260008981526020019081526020016000206000018054600181600116156101000203166002900480601f016020809104026020016040519081016040528092919081815260200182805460018160011615610100020316600290048015610e255780601f10610dfa57610100808354040283529160200191610e25565b820191906000526020600020905b815481529060010190602001808311610e0857829003601f168201915b505050505061114c565b508460036000878152602001908152602001600020600101600160008292509350935093509350610e81565b846003600087815260200190815260200160002060010160008082925093509350935093505b9193509193565b600080600080610f3560026000888152602001908152602001600020600101805480602002602001604051908101604052809291908181526020018280548015610f2757602002820191906000526020600020905b8160009054906101000a900473ffffffffffffffffffffffffffffffffffffffff1673ffffffffffffffffffffffffffffffffffffffff1681526020019060010190808311610edd575b50505050508660ff1661123b565b600260008881526020019081526020016000206001019080519060200190610f5e92919061141d565b5060006002600088815260200190815260200160002060020160003373ffffffffffffffffffffffffffffffffffffffff1673ffffffffffffffffffffffffffffffffffffffff16815260200190815260200160002060006101000a81548160ff02191690831515021790555060028060008881526020019081526020016000206001018054905010156110465760016002600088815260200190815260200160002060040160006101000a81548160ff021916908315150217905550856002600088815260200190815260200160002060010160006001829250935093509350935061106c565b856002600088815260200190815260200160002060010160008082925093509350935093505b92959194509250565b6000806000905060008090505b83600101805490508160ff161015611142576000846001018260ff168154811015156110aa57fe5b9060005260206000200160009054906101000a900473ffffffffffffffffffffffffffffffffffffffff1690508460020160008273ffffffffffffffffffffffffffffffffffffffff1673ffffffffffffffffffffffffffffffffffffffff16815260200190815260200160002060009054906101000a900460ff16156111345782806001019350505b508080600101915050611082565b5080915050919050565b60008260036000868152602001908152602001600020600101908051906020019061117892919061141d565b50816003600086815260200190815260200160002060000190805190602001906111a39291906114a7565b5060006003600086815260200190815260200160002060020160006101000a81548160ff02191690831515021790555060016003600086815260200190815260200160002060020160016101000a81548160ff02191690831515021790555060016002600086815260200190815260200160002060040160016101000a81548160ff0219169083151502179055508390509392505050565b606082518210151561124f57829050611397565b606060018451036040519080825280602002602001820160405280156112845781602001602082028038833980820191505090505b50905060008090505b84518160ff16101561139157838160ff16101561130d57848160ff168151811015156112b557fe5b90602001906020020151828260ff168151811015156112d057fe5b9060200190602002019073ffffffffffffffffffffffffffffffffffffffff16908173ffffffffffffffffffffffffffffffffffffffff16815250505b838160ff16111561138457848160ff1681518110151561132957fe5b90602001906020020151826001830360ff1681518110151561134757fe5b9060200190602002019073ffffffffffffffffffffffffffffffffffffffff16908173ffffffffffffffffffffffffffffffffffffffff16815250505b808060010191505061128d565b50809150505b92915050565b828054600181600116156101000203166002900490600052602060002090601f016020900481019282601f106113de57803560ff191683800117855561140c565b8280016001018555821561140c579182015b8281111561140b5782358255916020019190600101906113f0565b5b5090506114199190611527565b5090565b828054828255906000526020600020908101928215611496579160200282015b828111156114955782518260006101000a81548173ffffffffffffffffffffffffffffffffffffffff021916908373ffffffffffffffffffffffffffffffffffffffff1602179055509160200191906001019061143d565b5b5090506114a3919061154c565b5090565b828054600181600116156101000203166002900490600052602060002090601f016020900481019282601f106114e857805160ff1916838001178555611516565b82800160010185558215611516579182015b828111156115155782518255916020019190600101906114fa565b5b5090506115239190611527565b5090565b61154991905b8082111561154557600081600090555060010161152d565b5090565b90565b61158c91905b8082111561158857600081816101000a81549073ffffffffffffffffffffffffffffffffffffffff021916905550600101611552565b5090565b9056fea165627a7a723058208a6cbd0df9a7a76e18c52133fe850ada1d3b95a1438bd3a6cdc8c686a65b152e0029",
  "source": "pragma solidity ^0.5.0;\n\ncontract SplitwiseGroup {\n\n  uint256 private idCounter = 1;\n\n  struct Group {\n    string title;\n    address[] participants;\n    bool isDeleted;\n    bool isActive;\n  }\n\n  struct GroupProposal {\n    string title;\n    address[] participants;\n    mapping(address => bool) confirmations;\n    mapping(address => bool) addressLedger;\n    bool isRejected;\n    bool isApproved;\n  }\n\n  address deployer;\n\n  mapping(uint256 => GroupProposal) private groupProposals;\n\n  mapping(uint256 => Group) private groups;\n\n  constructor() public {\n    deployer = msg.sender;\n  }\n\n  function registerGroupProposal(string calldata title, address[] calldata participants) external returns(uint256, address[] memory){\n    require(participants.length >= 2);\n    require(participants.length <= 50);\n\n    uint256 groupId = idCounter++;\n    for(uint8 i = 0; i < participants.length; i++){\n      if(!groupProposals[groupId].addressLedger[participants[i]]){\n        groupProposals[groupId].participants.push(participants[i]);\n        groupProposals[groupId].addressLedger[participants[i]] = true;\n        groupProposals[groupId].confirmations[participants[i]] = false;\n      }\n    }\n    groupProposals[groupId].title = title;\n    groupProposals[groupId].isRejected = false;\n    groupProposals[groupId].isApproved = false;\n\n    return(groupId, groupProposals[groupId].participants);\n  }\n\n  function deleteGroup(uint256 groupId) external returns(address[] memory){\n    groups[groupId].isDeleted = true;\n    groups[groupId].isActive = false;\n\n    return groups[groupId].participants;\n  }\n\n  function submitUserParticipation(uint256 groupId, bool confirmation) external returns(uint256, address[] memory, bool, bool){\n    //Checking that group proposal has not been discarded or transformed into a group already\n    require(!groupProposals[groupId].isRejected, \"Already rejected group proposal\");\n    require(!groupProposals[groupId].isApproved, \"Already approved group proposal\");\n\n    //Checking that sender is an invited group participant\n    uint8 index = getGroupParticipantIndex(groupProposals[groupId].participants, msg.sender);\n    require(index < groupProposals[groupId].participants.length, \"Not a group participant\");\n\n    if(confirmation) return registerParticipantConfirmation(groupId);\n    if(!confirmation) return registerParticipantCancellation(groupId, index);\n  }\n\n  /*************** PRIVATE FUNCTIONS ****************/\n\n  function registerParticipantConfirmation(uint256 groupId) private returns(uint256, address[] storage, bool, bool){\n    groupProposals[groupId].confirmations[msg.sender] = true;\n\n    //Checking wheater it is necessary to create a new group\n    if(getGroupProposalConfirmationCount(groupProposals[groupId]) == groupProposals[groupId].participants.length){\n      registerNewGroup(groupId, groupProposals[groupId].participants, groupProposals[groupId].title);\n      return (groupId, groups[groupId].participants, true, false);\n    }\n    return (groupId, groups[groupId].participants, false, false);\n  }\n\n  function registerParticipantCancellation(uint256 groupId, uint8 index) private returns(uint256, address[] storage, bool, bool){\n    groupProposals[groupId].participants = removeGroupParticipantByIndex(groupProposals[groupId].participants, index);\n    groupProposals[groupId].confirmations[msg.sender] = false;\n\n    if(groupProposals[groupId].participants.length < 2){\n      groupProposals[groupId].isRejected = true;\n      return (groupId, groupProposals[groupId].participants, false, true);\n    }\n    return (groupId, groupProposals[groupId].participants, false, false);\n  }\n\n  function registerNewGroup(uint256 groupId, address[] memory participants, string memory title) private returns(uint256){\n    //Creating new group\n    groups[groupId].participants = participants;\n    groups[groupId].title = title;\n    groups[groupId].isDeleted = false;\n    groups[groupId].isActive = true;\n    groupProposals[groupId].isApproved = true;\n    return groupId;\n  }\n\n  function getGroupProposalConfirmationCount(GroupProposal storage groupProposal) private view returns(uint8){\n    uint8 counter = 0;\n    for(uint8 i = 0; i < groupProposal.participants.length; i++){\n      address participant = groupProposal.participants[i];\n      if(groupProposal.confirmations[participant]) counter++;\n    }\n    return counter;\n  }\n\n\n  /*************** LIBRARY FUNCTIONS ****************/\n\n  function getGroupParticipantIndex(address[] memory participants, address sender) private pure returns(uint8){\n    for(uint8 i = 0; i < participants.length; i++){\n      if(sender == participants[i]) return i;\n    }\n    return uint8(participants.length);\n  }\n\n  function removeGroupParticipantByIndex(address[] memory participants, uint index) private pure returns(address[] memory) {\n        if (index >= participants.length) return participants;\n\n        address[] memory newParticipants = new address[](participants.length - 1);\n        for (uint8 i = 0; i < participants.length; i++){\n            if(i < index) newParticipants[i] = participants[i];\n            if(i > index) newParticipants[i - 1] = participants[i];\n        }\n        return newParticipants;\n  }\n}\n",
  "sourcePath": "/home/ferretti/blockchain/Splitwise/contracts/SplitwiseGroup.sol",
  "compiler": {
    "name": "solc",
    "version": "0.5.0+commit.1d4f565a.Emscripten.clang"
  },
  "schemaVersion": "3.0.6",
  "updatedAt": "2019-05-01T18:38:06.092Z",
  "devdoc": {
    "methods": {}
  },
  "userdoc": {
    "methods": {}
  }
}